{"contracts/VotingSSI.sol":{"VotingSSI":{"abi":[{"inputs":[{"internalType":"address","name":"_issuer","type":"address"},{"internalType":"string","name":"_name","type":"string"},{"internalType":"string","name":"_version","type":"string"}],"stateMutability":"nonpayable","type":"constructor"},{"inputs":[],"name":"DoubleVoting","type":"error"},{"inputs":[],"name":"ECDSAFailed","type":"error"},{"inputs":[],"name":"ElectionAlreadyEnded","type":"error"},{"inputs":[],"name":"ElectionEnded","type":"error"},{"inputs":[],"name":"ElectionNotActive","type":"error"},{"inputs":[],"name":"ElectionNotStarted","type":"error"},{"inputs":[],"name":"InvalidCandidate","type":"error"},{"inputs":[],"name":"InvalidIssuer","type":"error"},{"inputs":[],"name":"InvalidSignatureLength","type":"error"},{"inputs":[],"name":"InvalidSignatureV","type":"error"},{"inputs":[],"name":"InvalidSignatures","type":"error"},{"inputs":[],"name":"InvalidTimeRange","type":"error"},{"inputs":[],"name":"NoCandidates","type":"error"},{"inputs":[],"name":"ProofExpired","type":"error"},{"inputs":[],"name":"Unauthorized","type":"error"},{"anonymous":false,"inputs":[{"indexed":true,"internalType":"uint256","name":"electionID","type":"uint256"},{"indexed":false,"internalType":"string","name":"title","type":"string"},{"indexed":false,"internalType":"uint256","name":"startTime","type":"uint256"},{"indexed":false,"internalType":"uint256","name":"endTime","type":"uint256"}],"name":"ElectionCreated","type":"event"},{"anonymous":false,"inputs":[{"indexed":true,"internalType":"address","name":"oldIssuer","type":"address"},{"indexed":true,"internalType":"address","name":"newIssuer","type":"address"}],"name":"IssuerUpdated","type":"event"},{"anonymous":false,"inputs":[{"indexed":true,"internalType":"uint256","name":"electionID","type":"uint256"},{"indexed":false,"internalType":"uint256","name":"candidateID","type":"uint256"},{"indexed":true,"internalType":"bytes32","name":"nullifier","type":"bytes32"},{"indexed":false,"internalType":"uint256","name":"timestamp","type":"uint256"}],"name":"VoteCast","type":"event"},{"inputs":[],"name":"CREDENTIAL_TYPEHASH","outputs":[{"internalType":"bytes32","name":"","type":"bytes32"}],"stateMutability":"view","type":"function"},{"inputs":[],"name":"DOMAIN_SEPARATOR","outputs":[{"internalType":"bytes32","name":"","type":"bytes32"}],"stateMutability":"view","type":"function"},{"inputs":[],"name":"VOTE_TYPEHASH","outputs":[{"internalType":"bytes32","name":"","type":"bytes32"}],"stateMutability":"view","type":"function"},{"inputs":[{"internalType":"bytes32","name":"_emailHash","type":"bytes32"},{"internalType":"uint256","name":"_electionID","type":"uint256"}],"name":"calculateNullifier","outputs":[{"internalType":"bytes32","name":"","type":"bytes32"}],"stateMutability":"pure","type":"function"},{"inputs":[{"internalType":"uint256","name":"","type":"uint256"},{"internalType":"uint256","name":"","type":"uint256"}],"name":"candidates","outputs":[{"internalType":"uint256","name":"id","type":"uint256"},{"internalType":"string","name":"name","type":"string"},{"internalType":"uint256","name":"voteCount","type":"uint256"}],"stateMutability":"view","type":"function"},{"inputs":[{"internalType":"string","name":"_title","type":"string"},{"internalType":"uint256","name":"_startTime","type":"uint256"},{"internalType":"uint256","name":"_endTime","type":"uint256"},{"internalType":"string[]","name":"_candidateNames","type":"string[]"}],"name":"createElection","outputs":[],"stateMutability":"nonpayable","type":"function"},{"inputs":[],"name":"currentElectionId","outputs":[{"internalType":"uint256","name":"","type":"uint256"}],"stateMutability":"view","type":"function"},{"inputs":[{"internalType":"uint256","name":"","type":"uint256"}],"name":"elections","outputs":[{"internalType":"uint256","name":"id","type":"uint256"},{"internalType":"string","name":"title","type":"string"},{"internalType":"uint256","name":"startTime","type":"uint256"},{"internalType":"uint256","name":"endTime","type":"uint256"},{"internalType":"bool","name":"isActive","type":"bool"}],"stateMutability":"view","type":"function"},{"inputs":[{"internalType":"uint256","name":"_electionID","type":"uint256"}],"name":"endElection","outputs":[],"stateMutability":"nonpayable","type":"function"},{"inputs":[{"internalType":"uint256","name":"_electionID","type":"uint256"}],"name":"getCandidateCount","outputs":[{"internalType":"uint256","name":"","type":"uint256"}],"stateMutability":"view","type":"function"},{"inputs":[],"name":"getDomainSeparator","outputs":[{"internalType":"bytes32","name":"","type":"bytes32"}],"stateMutability":"view","type":"function"},{"inputs":[{"internalType":"uint256","name":"_electionID","type":"uint256"}],"name":"getResults","outputs":[{"internalType":"string[]","name":"names","type":"string[]"},{"internalType":"uint256[]","name":"votes","type":"uint256[]"}],"stateMutability":"view","type":"function"},{"inputs":[{"internalType":"bytes32","name":"_nullifier","type":"bytes32"}],"name":"isNullifierUsed","outputs":[{"internalType":"bool","name":"","type":"bool"}],"stateMutability":"view","type":"function"},{"inputs":[],"name":"issuer","outputs":[{"internalType":"address","name":"","type":"address"}],"stateMutability":"view","type":"function"},{"inputs":[{"internalType":"address","name":"_newIssuer","type":"address"}],"name":"updateIssuer","outputs":[],"stateMutability":"nonpayable","type":"function"},{"inputs":[{"internalType":"bytes32","name":"","type":"bytes32"}],"name":"usedNullifiers","outputs":[{"internalType":"bool","name":"","type":"bool"}],"stateMutability":"view","type":"function"},{"inputs":[{"components":[{"internalType":"bytes32","name":"emailHash","type":"bytes32"},{"internalType":"address","name":"burner","type":"address"},{"internalType":"uint256","name":"electionID","type":"uint256"},{"internalType":"uint256","name":"candidateID","type":"uint256"},{"internalType":"uint256","name":"timestamp","type":"uint256"},{"internalType":"bytes","name":"issuerSignature","type":"bytes"},{"internalType":"bytes","name":"burnerSignature","type":"bytes"}],"internalType":"struct VotingSSI.VoteProof","name":"proof","type":"tuple"}],"name":"vote","outputs":[],"stateMutability":"nonpayable","type":"function"}],"evm":{"bytecode":{"linkReferences":{},"object":"608060405234801561001057600080fd5b5060405161183238038061183283398101604081905261002f916101a5565b6001600160a01b03831661005657604051635edff10b60e11b815260040160405180910390fd5b600180546001600160a01b0319166001600160a01b0385161790558151602080840191909120825183830120604080517f8b73c3c69bb8fe3d512ecc4cf759cc79239f7b179b0ffacaa9a75d522b39400f9481019490945283019190915260608201524660808201523060a082015260c0016040516020818303038152906040528051906020012060008190555050505061022d565b634e487b7160e01b600052604160045260246000fd5b600082601f83011261011357600080fd5b81516001600160401b0381111561012c5761012c6100ec565b604051601f8201601f19908116603f011681016001600160401b038111828210171561015a5761015a6100ec565b60405281815283820160200185101561017257600080fd5b60005b8281101561019157602081860181015183830182015201610175565b506000918101602001919091529392505050565b6000806000606084860312156101ba57600080fd5b83516001600160a01b03811681146101d157600080fd5b60208501519093506001600160401b038111156101ed57600080fd5b6101f986828701610102565b604086015190935090506001600160401b0381111561021757600080fd5b61022386828701610102565b9150509250925092565b6115f68061023c6000396000f3fe608060405234801561001057600080fd5b506004361061010b5760003560e01c8063656e80a1116100a25780638652297311610071578063865229731461029657806398ecf2a0146102bd5780639c98bcbb146102c6578063bc279047146102d9578063ed24911d146102ec57600080fd5b8063656e80a11461022d57806378312435146102405780637de142421461025357806381a60c0d1461027557600080fd5b806327d35000116100de57806327d35000146101c45780633644e515146101eb5780633b58fd3a146101f45780635e6fef011461020957600080fd5b80631d14384814610110578063206137aa1461014057806322dc7b4c1461017357806326f6a2aa14610196575b600080fd5b600154610123906001600160a01b031681565b6040516001600160a01b0390911681526020015b60405180910390f35b61016361014e366004610fdb565b60056020526000908152604090205460ff1681565b6040519015158152602001610137565b610163610181366004610fdb565b60009081526005602052604090205460ff1690565b6101b66101a4366004610fdb565b60009081526004602052604090205490565b604051908152602001610137565b6101b67f76a9d642c806c907ea3dea2a312a262b4a16dd30d78440d444018584f3acbf7281565b6101b660005481565b610207610202366004610ff4565b6102f4565b005b61021c610217366004610fdb565b6105db565b60405161013795949392919061107c565b6101b661023b3660046110b4565b610697565b61020761024e3660046110d6565b6106c6565b6102666102613660046110b4565b610769565b604051610137939291906110ff565b610288610283366004610fdb565b610838565b604051610137929190611128565b6101b67fdd020eadfab6f62908d5aa3adc9590f09c66d4959b3f970feb0ba67c9280a5f681565b6101b660025481565b6102076102d4366004610fdb565b610a24565b6102076102e7366004611283565b610a9b565b6000546101b6565b80604001356000600360008381526020019081526020016000206040518060a00160405290816000820154815260200160018201805461033390611394565b80601f016020809104026020016040519081016040528092919081815260200182805461035f90611394565b80156103ac5780601f10610381576101008083540402835291602001916103ac565b820191906000526020600020905b81548152906001019060200180831161038f57829003601f168201915b5050509183525050600282015460208201526003820154604082015260049091015460ff16151560609091015260808101519091506103fe57604051638744898560e01b815260040160405180910390fd5b8060400151421015610423576040516372a84ce560e11b815260040160405180910390fd5b80606001514211156104485760405163066ec72360e41b815260040160405180910390fd5b604080518435602080830191909152858301358284015282518083038401815260609092018352815191810191909120600081815260059092529190205460ff16156104a75760405163bb70441b60e01b815260040160405180910390fd5b6040808501356000908152600460205220546060850135106104dc5760405163e66ea08f60e01b815260040160405180910390fd5b6104ec6080850135610e106113e4565b42111561050c5760405163b67a771360e01b815260040160405180910390fd5b61051584610c83565b6105325760405163274cf40160e01b815260040160405180910390fd5b6000818152600560209081526040808320805460ff191660011790558681013583526004909152902080546060860135908110610571576105716113f7565b6000918252602091829020600260039092020101805460010190556040805160608701358152608087013592810192909252829181870135917fe79f2326f5235cecec005b291a88eac9e9f418c219be84fe8b9e8ba3547dcc6e910160405180910390a350505050565b600360205260009081526040902080546001820180549192916105fd90611394565b80601f016020809104026020016040519081016040528092919081815260200182805461062990611394565b80156106765780601f1061064b57610100808354040283529160200191610676565b820191906000526020600020905b81548152906001019060200180831161065957829003601f168201915b50505050600283015460038401546004909401549293909290915060ff1685565b604080516020808201859052818301849052825180830384018152606090920190925280519101205b92915050565b6001546001600160a01b031633146106f0576040516282b42960e81b815260040160405180910390fd5b6001600160a01b03811661071757604051635edff10b60e11b815260040160405180910390fd5b600180546001600160a01b038381166001600160a01b0319831681179093556040519116919082907f6d32c1367cc28eab61cca04e424f151519f02908af46776ba8373eaea407baa990600090a35050565b6004602052816000526040600020818154811061078557600080fd5b9060005260206000209060030201600091509150508060000154908060010180546107af90611394565b80601f01602080910402602001604051908101604052809291908181526020018280546107db90611394565b80156108285780601f106107fd57610100808354040283529160200191610828565b820191906000526020600020905b81548152906001019060200180831161080b57829003601f168201915b5050505050908060020154905083565b60008181526004602052604090205460609081908067ffffffffffffffff811115610865576108656111cc565b60405190808252806020026020018201604052801561089857816020015b60608152602001906001900390816108835790505b5092508067ffffffffffffffff8111156108b4576108b46111cc565b6040519080825280602002602001820160405280156108dd578160200160208202803683370190505b50915060005b81811015610a1d57600085815260046020526040902080548290811061090b5761090b6113f7565b9060005260206000209060030201600101805461092790611394565b80601f016020809104026020016040519081016040528092919081815260200182805461095390611394565b80156109a05780601f10610975576101008083540402835291602001916109a0565b820191906000526020600020905b81548152906001019060200180831161098357829003601f168201915b50505050508482815181106109b7576109b76113f7565b60200260200101819052506004600086815260200190815260200160002081815481106109e6576109e66113f7565b906000526020600020906003020160020154838281518110610a0a57610a0a6113f7565b60209081029190910101526001016108e3565b5050915091565b6001546001600160a01b03163314610a4e576040516282b42960e81b815260040160405180910390fd5b60008181526003602052604090206004015460ff16610a805760405163399d988360e21b815260040160405180910390fd5b6000908152600360205260409020600401805460ff19169055565b6001546001600160a01b03163314610ac5576040516282b42960e81b815260040160405180910390fd5b818310610ae55760405163536a71af60e01b815260040160405180910390fd5b8051600003610b0757604051633941064160e21b815260040160405180910390fd5b60028054906000610b178361140d565b90915550506040805160a081018252600254808252602080830188815283850188905260608401879052600160808501819052600093845260039092529390912082518155925191929190820190610b6f9082611475565b5060408201516002820155606082015160038201556080909101516004909101805460ff191691151591909117905560005b8151811015610c3e576004600060025481526020019081526020016000206040518060600160405280838152602001848481518110610be257610be26113f7565b602090810291909101810151825260009181018290528354600181810186559483529181902083516003909302019182558201519192909190820190610c289082611475565b5060409190910151600290910155600101610ba1565b506002547fe7a0aae5d733e07e246dea86213a1ac1b0aa8554bde889bb75c12752f44e53d9858585604051610c7593929190611534565b60405180910390a250505050565b6000807f76a9d642c806c907ea3dea2a312a262b4a16dd30d78440d444018584f3acbf728335610cb960408601602087016110d6565b604080516020810194909452838101929092526001600160a01b03166060830152840135608082015260a0016040516020818303038152906040528051906020012090506000805482604051602001610d2992919061190160f01b81526002810192909252602282015260420190565b60408051601f19818403018152919052805160209091012090506000610d9082610d5660a0880188611559565b8080601f016020809104026020016040519081016040528093929190818152602001838380828437600092019190915250610ec392505050565b6001549091506001600160a01b03808316911614610dc15760405163274cf40160e01b815260040160405180910390fd5b604080517fdd020eadfab6f62908d5aa3adc9590f09c66d4959b3f970feb0ba67c9280a5f6602080830191909152606088810135838501528884013590830152608080890135818401528351808403909101815260a0830190935282519201919091206000805461190160f01b60c085015260c284015260e2830182905290916101020160408051601f19818403018152919052805160209091012090506000610e7282610d5660c08b018b611559565b9050610e846040890160208a016110d6565b6001600160a01b0316816001600160a01b031614610eb55760405163274cf40160e01b815260040160405180910390fd5b506001979650505050505050565b60008151604114610ee757604051634be6321b60e01b815260040160405180910390fd5b60208201516040830151606084015160001a601b811015610f1057610f0d601b826115a7565b90505b8060ff16601b14158015610f2857508060ff16601c14155b15610f4957604051600162aae17760e01b0319815260040160405180910390fd5b6040805160008082526020820180845289905260ff841692820192909252606081018590526080810184905260019060a0016020604051602081039080840390855afa158015610f9d573d6000803e3d6000fd5b5050604051601f1901519150506001600160a01b038116610fd1576040516336409d8560e01b815260040160405180910390fd5b9695505050505050565b600060208284031215610fed57600080fd5b5035919050565b60006020828403121561100657600080fd5b813567ffffffffffffffff81111561101d57600080fd5b820160e0818503121561102f57600080fd5b9392505050565b6000815180845260005b8181101561105c57602081850181015186830182015201611040565b506000602082860101526020601f19601f83011685010191505092915050565b85815260a06020820152600061109560a0830187611036565b6040830195909552506060810192909252151560809091015292915050565b600080604083850312156110c757600080fd5b50508035926020909101359150565b6000602082840312156110e857600080fd5b81356001600160a01b038116811461102f57600080fd5b8381526060602082015260006111186060830185611036565b9050826040830152949350505050565b6000604082016040835280855180835260608501915060608160051b86010192506020870160005b8281101561118157605f1987860301845261116c858351611036565b94506020938401939190910190600101611150565b50505050828103602084015280845180835260208301915060208601925060005b818110156111c05783518352602093840193909201916001016111a2565b50909695505050505050565b634e487b7160e01b600052604160045260246000fd5b604051601f8201601f1916810167ffffffffffffffff8111828210171561120b5761120b6111cc565b604052919050565b600082601f83011261122457600080fd5b813567ffffffffffffffff81111561123e5761123e6111cc565b611251601f8201601f19166020016111e2565b81815284602083860101111561126657600080fd5b816020850160208301376000918101602001919091529392505050565b6000806000806080858703121561129957600080fd5b843567ffffffffffffffff8111156112b057600080fd5b6112bc87828801611213565b9450506020850135925060408501359150606085013567ffffffffffffffff8111156112e757600080fd5b8501601f810187136112f857600080fd5b803567ffffffffffffffff811115611312576113126111cc565b8060051b611322602082016111e2565b9182526020818401810192908101908a84111561133e57600080fd5b6020850192505b8383101561138557823567ffffffffffffffff81111561136457600080fd5b6113738c602083890101611213565b83525060209283019290910190611345565b979a9699509497505050505050565b600181811c908216806113a857607f821691505b6020821081036113c857634e487b7160e01b600052602260045260246000fd5b50919050565b634e487b7160e01b600052601160045260246000fd5b808201808211156106c0576106c06113ce565b634e487b7160e01b600052603260045260246000fd5b60006001820161141f5761141f6113ce565b5060010190565b601f82111561147057806000526020600020601f840160051c8101602085101561144d5750805b601f840160051c820191505b8181101561146d5760008155600101611459565b50505b505050565b815167ffffffffffffffff81111561148f5761148f6111cc565b6114a38161149d8454611394565b84611426565b6020601f8211600181146114d757600083156114bf5750848201515b600019600385901b1c1916600184901b17845561146d565b600084815260208120601f198516915b8281101561150757878501518255602094850194600190920191016114e7565b50848210156115255786840151600019600387901b60f8161c191681555b50505050600190811b01905550565b6060815260006115476060830186611036565b60208301949094525060400152919050565b6000808335601e1984360301811261157057600080fd5b83018035915067ffffffffffffffff82111561158b57600080fd5b6020019150368190038213156115a057600080fd5b9250929050565b60ff81811683821601908111156106c0576106c06113ce56fea2646970667358221220dc28260dfa87ce13919685cb2be8243c408f8e7da45b505ddd9db4fa2c91be3764736f6c634300081c0033","opcodes":"PUSH1 0x80 PUSH1 0x40 MSTORE CALLVALUE DUP1 ISZERO PUSH2 0x10 JUMPI PUSH1 0x0 DUP1 REVERT JUMPDEST POP PUSH1 0x40 MLOAD PUSH2 0x1832 CODESIZE SUB DUP1 PUSH2 0x1832 DUP4 CODECOPY DUP2 ADD PUSH1 0x40 DUP2 SWAP1 MSTORE PUSH2 0x2F SWAP2 PUSH2 0x1A5 JUMP JUMPDEST PUSH1 0x1 PUSH1 0x1 PUSH1 0xA0 SHL SUB DUP4 AND PUSH2 0x56 JUMPI PUSH1 0x40 MLOAD PUSH4 0x5EDFF10B PUSH1 0xE1 SHL DUP2 MSTORE PUSH1 0x4 ADD PUSH1 0x40 MLOAD DUP1 SWAP2 SUB SWAP1 REVERT JUMPDEST PUSH1 0x1 DUP1 SLOAD PUSH1 0x1 PUSH1 0x1 PUSH1 0xA0 SHL SUB NOT AND PUSH1 0x1 PUSH1 0x1 PUSH1 0xA0 SHL SUB DUP6 AND OR SWAP1 SSTORE DUP2 MLOAD PUSH1 0x20 DUP1 DUP5 ADD SWAP2 SWAP1 SWAP2 KECCAK256 DUP3 MLOAD DUP4 DUP4 ADD KECCAK256 PUSH1 0x40 DUP1 MLOAD PUSH32 0x8B73C3C69BB8FE3D512ECC4CF759CC79239F7B179B0FFACAA9A75D522B39400F SWAP5 DUP2 ADD SWAP5 SWAP1 SWAP5 MSTORE DUP4 ADD SWAP2 SWAP1 SWAP2 MSTORE PUSH1 0x60 DUP3 ADD MSTORE CHAINID PUSH1 0x80 DUP3 ADD MSTORE ADDRESS PUSH1 0xA0 DUP3 ADD MSTORE PUSH1 0xC0 ADD PUSH1 0x40 MLOAD PUSH1 0x20 DUP2 DUP4 SUB SUB DUP2 MSTORE SWAP1 PUSH1 0x40 MSTORE DUP1 MLOAD SWAP1 PUSH1 0x20 ADD KECCAK256 PUSH1 0x0 DUP2 SWAP1 SSTORE POP POP POP POP PUSH2 0x22D JUMP JUMPDEST PUSH4 0x4E487B71 PUSH1 0xE0 SHL PUSH1 0x0 MSTORE PUSH1 0x41 PUSH1 0x4 MSTORE PUSH1 0x24 PUSH1 0x0 REVERT JUMPDEST PUSH1 0x0 DUP3 PUSH1 0x1F DUP4 ADD SLT PUSH2 0x113 JUMPI PUSH1 0x0 DUP1 REVERT JUMPDEST DUP2 MLOAD PUSH1 0x1 PUSH1 0x1 PUSH1 0x40 SHL SUB DUP2 GT ISZERO PUSH2 0x12C JUMPI PUSH2 0x12C PUSH2 0xEC JUMP JUMPDEST PUSH1 0x40 MLOAD PUSH1 0x1F DUP3 ADD PUSH1 0x1F NOT SWAP1 DUP2 AND PUSH1 0x3F ADD AND DUP2 ADD PUSH1 0x1 PUSH1 0x1 PUSH1 0x40 SHL SUB DUP2 GT DUP3 DUP3 LT OR ISZERO PUSH2 0x15A JUMPI PUSH2 0x15A PUSH2 0xEC JUMP JUMPDEST PUSH1 0x40 MSTORE DUP2 DUP2 MSTORE DUP4 DUP3 ADD PUSH1 0x20 ADD DUP6 LT ISZERO PUSH2 0x172 JUMPI PUSH1 0x0 DUP1 REVERT JUMPDEST PUSH1 0x0 JUMPDEST DUP3 DUP2 LT ISZERO PUSH2 0x191 JUMPI PUSH1 0x20 DUP2 DUP7 ADD DUP2 ADD MLOAD DUP4 DUP4 ADD DUP3 ADD MSTORE ADD PUSH2 0x175 JUMP JUMPDEST POP PUSH1 0x0 SWAP2 DUP2 ADD PUSH1 0x20 ADD SWAP2 SWAP1 SWAP2 MSTORE SWAP4 SWAP3 POP POP POP JUMP JUMPDEST PUSH1 0x0 DUP1 PUSH1 0x0 PUSH1 0x60 DUP5 DUP7 SUB SLT ISZERO PUSH2 0x1BA JUMPI PUSH1 0x0 DUP1 REVERT JUMPDEST DUP4 MLOAD PUSH1 0x1 PUSH1 0x1 PUSH1 0xA0 SHL SUB DUP2 AND DUP2 EQ PUSH2 0x1D1 JUMPI PUSH1 0x0 DUP1 REVERT JUMPDEST PUSH1 0x20 DUP6 ADD MLOAD SWAP1 SWAP4 POP PUSH1 0x1 PUSH1 0x1 PUSH1 0x40 SHL SUB DUP2 GT ISZERO PUSH2 0x1ED JUMPI PUSH1 0x0 DUP1 REVERT JUMPDEST PUSH2 0x1F9 DUP7 DUP3 DUP8 ADD PUSH2 0x102 JUMP JUMPDEST PUSH1 0x40 DUP7 ADD MLOAD SWAP1 SWAP4 POP SWAP1 POP PUSH1 0x1 PUSH1 0x1 PUSH1 0x40 SHL SUB DUP2 GT ISZERO PUSH2 0x217 JUMPI PUSH1 0x0 DUP1 REVERT JUMPDEST PUSH2 0x223 DUP7 DUP3 DUP8 ADD PUSH2 0x102 JUMP JUMPDEST SWAP2 POP POP SWAP3 POP SWAP3 POP SWAP3 JUMP JUMPDEST PUSH2 0x15F6 DUP1 PUSH2 0x23C PUSH1 0x0 CODECOPY PUSH1 0x0 RETURN INVALID PUSH1 0x80 PUSH1 0x40 MSTORE CALLVALUE DUP1 ISZERO PUSH2 0x10 JUMPI PUSH1 0x0 DUP1 REVERT JUMPDEST POP PUSH1 0x4 CALLDATASIZE LT PUSH2 0x10B JUMPI PUSH1 0x0 CALLDATALOAD PUSH1 0xE0 SHR DUP1 PUSH4 0x656E80A1 GT PUSH2 0xA2 JUMPI DUP1 PUSH4 0x86522973 GT PUSH2 0x71 JUMPI DUP1 PUSH4 0x86522973 EQ PUSH2 0x296 JUMPI DUP1 PUSH4 0x98ECF2A0 EQ PUSH2 0x2BD JUMPI DUP1 PUSH4 0x9C98BCBB EQ PUSH2 0x2C6 JUMPI DUP1 PUSH4 0xBC279047 EQ PUSH2 0x2D9 JUMPI DUP1 PUSH4 0xED24911D EQ PUSH2 0x2EC JUMPI PUSH1 0x0 DUP1 REVERT JUMPDEST DUP1 PUSH4 0x656E80A1 EQ PUSH2 0x22D JUMPI DUP1 PUSH4 0x78312435 EQ PUSH2 0x240 JUMPI DUP1 PUSH4 0x7DE14242 EQ PUSH2 0x253 JUMPI DUP1 PUSH4 0x81A60C0D EQ PUSH2 0x275 JUMPI PUSH1 0x0 DUP1 REVERT JUMPDEST DUP1 PUSH4 0x27D35000 GT PUSH2 0xDE JUMPI DUP1 PUSH4 0x27D35000 EQ PUSH2 0x1C4 JUMPI DUP1 PUSH4 0x3644E515 EQ PUSH2 0x1EB JUMPI DUP1 PUSH4 0x3B58FD3A EQ PUSH2 0x1F4 JUMPI DUP1 PUSH4 0x5E6FEF01 EQ PUSH2 0x209 JUMPI PUSH1 0x0 DUP1 REVERT JUMPDEST DUP1 PUSH4 0x1D143848 EQ PUSH2 0x110 JUMPI DUP1 PUSH4 0x206137AA EQ PUSH2 0x140 JUMPI DUP1 PUSH4 0x22DC7B4C EQ PUSH2 0x173 JUMPI DUP1 PUSH4 0x26F6A2AA EQ PUSH2 0x196 JUMPI JUMPDEST PUSH1 0x0 DUP1 REVERT JUMPDEST PUSH1 0x1 SLOAD PUSH2 0x123 SWAP1 PUSH1 0x1 PUSH1 0x1 PUSH1 0xA0 SHL SUB AND DUP2 JUMP JUMPDEST PUSH1 0x40 MLOAD PUSH1 0x1 PUSH1 0x1 PUSH1 0xA0 SHL SUB SWAP1 SWAP2 AND DUP2 MSTORE PUSH1 0x20 ADD JUMPDEST PUSH1 0x40 MLOAD DUP1 SWAP2 SUB SWAP1 RETURN JUMPDEST PUSH2 0x163 PUSH2 0x14E CALLDATASIZE PUSH1 0x4 PUSH2 0xFDB JUMP JUMPDEST PUSH1 0x5 PUSH1 0x20 MSTORE PUSH1 0x0 SWAP1 DUP2 MSTORE PUSH1 0x40 SWAP1 KECCAK256 SLOAD PUSH1 0xFF AND DUP2 JUMP JUMPDEST PUSH1 0x40 MLOAD SWAP1 ISZERO ISZERO DUP2 MSTORE PUSH1 0x20 ADD PUSH2 0x137 JUMP JUMPDEST PUSH2 0x163 PUSH2 0x181 CALLDATASIZE PUSH1 0x4 PUSH2 0xFDB JUMP JUMPDEST PUSH1 0x0 SWAP1 DUP2 MSTORE PUSH1 0x5 PUSH1 0x20 MSTORE PUSH1 0x40 SWAP1 KECCAK256 SLOAD PUSH1 0xFF AND SWAP1 JUMP JUMPDEST PUSH2 0x1B6 PUSH2 0x1A4 CALLDATASIZE PUSH1 0x4 PUSH2 0xFDB JUMP JUMPDEST PUSH1 0x0 SWAP1 DUP2 MSTORE PUSH1 0x4 PUSH1 0x20 MSTORE PUSH1 0x40 SWAP1 KECCAK256 SLOAD SWAP1 JUMP JUMPDEST PUSH1 0x40 MLOAD SWAP1 DUP2 MSTORE PUSH1 0x20 ADD PUSH2 0x137 JUMP JUMPDEST PUSH2 0x1B6 PUSH32 0x76A9D642C806C907EA3DEA2A312A262B4A16DD30D78440D444018584F3ACBF72 DUP2 JUMP JUMPDEST PUSH2 0x1B6 PUSH1 0x0 SLOAD DUP2 JUMP JUMPDEST PUSH2 0x207 PUSH2 0x202 CALLDATASIZE PUSH1 0x4 PUSH2 0xFF4 JUMP JUMPDEST PUSH2 0x2F4 JUMP JUMPDEST STOP JUMPDEST PUSH2 0x21C PUSH2 0x217 CALLDATASIZE PUSH1 0x4 PUSH2 0xFDB JUMP JUMPDEST PUSH2 0x5DB JUMP JUMPDEST PUSH1 0x40 MLOAD PUSH2 0x137 SWAP6 SWAP5 SWAP4 SWAP3 SWAP2 SWAP1 PUSH2 0x107C JUMP JUMPDEST PUSH2 0x1B6 PUSH2 0x23B CALLDATASIZE PUSH1 0x4 PUSH2 0x10B4 JUMP JUMPDEST PUSH2 0x697 JUMP JUMPDEST PUSH2 0x207 PUSH2 0x24E CALLDATASIZE PUSH1 0x4 PUSH2 0x10D6 JUMP JUMPDEST PUSH2 0x6C6 JUMP JUMPDEST PUSH2 0x266 PUSH2 0x261 CALLDATASIZE PUSH1 0x4 PUSH2 0x10B4 JUMP JUMPDEST PUSH2 0x769 JUMP JUMPDEST PUSH1 0x40 MLOAD PUSH2 0x137 SWAP4 SWAP3 SWAP2 SWAP1 PUSH2 0x10FF JUMP JUMPDEST PUSH2 0x288 PUSH2 0x283 CALLDATASIZE PUSH1 0x4 PUSH2 0xFDB JUMP JUMPDEST PUSH2 0x838 JUMP JUMPDEST PUSH1 0x40 MLOAD PUSH2 0x137 SWAP3 SWAP2 SWAP1 PUSH2 0x1128 JUMP JUMPDEST PUSH2 0x1B6 PUSH32 0xDD020EADFAB6F62908D5AA3ADC9590F09C66D4959B3F970FEB0BA67C9280A5F6 DUP2 JUMP JUMPDEST PUSH2 0x1B6 PUSH1 0x2 SLOAD DUP2 JUMP JUMPDEST PUSH2 0x207 PUSH2 0x2D4 CALLDATASIZE PUSH1 0x4 PUSH2 0xFDB JUMP JUMPDEST PUSH2 0xA24 JUMP JUMPDEST PUSH2 0x207 PUSH2 0x2E7 CALLDATASIZE PUSH1 0x4 PUSH2 0x1283 JUMP JUMPDEST PUSH2 0xA9B JUMP JUMPDEST PUSH1 0x0 SLOAD PUSH2 0x1B6 JUMP JUMPDEST DUP1 PUSH1 0x40 ADD CALLDATALOAD PUSH1 0x0 PUSH1 0x3 PUSH1 0x0 DUP4 DUP2 MSTORE PUSH1 0x20 ADD SWAP1 DUP2 MSTORE PUSH1 0x20 ADD PUSH1 0x0 KECCAK256 PUSH1 0x40 MLOAD DUP1 PUSH1 0xA0 ADD PUSH1 0x40 MSTORE SWAP1 DUP2 PUSH1 0x0 DUP3 ADD SLOAD DUP2 MSTORE PUSH1 0x20 ADD PUSH1 0x1 DUP3 ADD DUP1 SLOAD PUSH2 0x333 SWAP1 PUSH2 0x1394 JUMP JUMPDEST DUP1 PUSH1 0x1F ADD PUSH1 0x20 DUP1 SWAP2 DIV MUL PUSH1 0x20 ADD PUSH1 0x40 MLOAD SWAP1 DUP2 ADD PUSH1 0x40 MSTORE DUP1 SWAP3 SWAP2 SWAP1 DUP2 DUP2 MSTORE PUSH1 0x20 ADD DUP3 DUP1 SLOAD PUSH2 0x35F SWAP1 PUSH2 0x1394 JUMP JUMPDEST DUP1 ISZERO PUSH2 0x3AC JUMPI DUP1 PUSH1 0x1F LT PUSH2 0x381 JUMPI PUSH2 0x100 DUP1 DUP4 SLOAD DIV MUL DUP4 MSTORE SWAP2 PUSH1 0x20 ADD SWAP2 PUSH2 0x3AC JUMP JUMPDEST DUP3 ADD SWAP2 SWAP1 PUSH1 0x0 MSTORE PUSH1 0x20 PUSH1 0x0 KECCAK256 SWAP1 JUMPDEST DUP2 SLOAD DUP2 MSTORE SWAP1 PUSH1 0x1 ADD SWAP1 PUSH1 0x20 ADD DUP1 DUP4 GT PUSH2 0x38F JUMPI DUP3 SWAP1 SUB PUSH1 0x1F AND DUP3 ADD SWAP2 JUMPDEST POP POP POP SWAP2 DUP4 MSTORE POP POP PUSH1 0x2 DUP3 ADD SLOAD PUSH1 0x20 DUP3 ADD MSTORE PUSH1 0x3 DUP3 ADD SLOAD PUSH1 0x40 DUP3 ADD MSTORE PUSH1 0x4 SWAP1 SWAP2 ADD SLOAD PUSH1 0xFF AND ISZERO ISZERO PUSH1 0x60 SWAP1 SWAP2 ADD MSTORE PUSH1 0x80 DUP2 ADD MLOAD SWAP1 SWAP2 POP PUSH2 0x3FE JUMPI PUSH1 0x40 MLOAD PUSH4 0x87448985 PUSH1 0xE0 SHL DUP2 MSTORE PUSH1 0x4 ADD PUSH1 0x40 MLOAD DUP1 SWAP2 SUB SWAP1 REVERT JUMPDEST DUP1 PUSH1 0x40 ADD MLOAD TIMESTAMP LT ISZERO PUSH2 0x423 JUMPI PUSH1 0x40 MLOAD PUSH4 0x72A84CE5 PUSH1 0xE1 SHL DUP2 MSTORE PUSH1 0x4 ADD PUSH1 0x40 MLOAD DUP1 SWAP2 SUB SWAP1 REVERT JUMPDEST DUP1 PUSH1 0x60 ADD MLOAD TIMESTAMP GT ISZERO PUSH2 0x448 JUMPI PUSH1 0x40 MLOAD PUSH4 0x66EC723 PUSH1 0xE4 SHL DUP2 MSTORE PUSH1 0x4 ADD PUSH1 0x40 MLOAD DUP1 SWAP2 SUB SWAP1 REVERT JUMPDEST PUSH1 0x40 DUP1 MLOAD DUP5 CALLDATALOAD PUSH1 0x20 DUP1 DUP4 ADD SWAP2 SWAP1 SWAP2 MSTORE DUP6 DUP4 ADD CALLDATALOAD DUP3 DUP5 ADD MSTORE DUP3 MLOAD DUP1 DUP4 SUB DUP5 ADD DUP2 MSTORE PUSH1 0x60 SWAP1 SWAP3 ADD DUP4 MSTORE DUP2 MLOAD SWAP2 DUP2 ADD SWAP2 SWAP1 SWAP2 KECCAK256 PUSH1 0x0 DUP2 DUP2 MSTORE PUSH1 0x5 SWAP1 SWAP3 MSTORE SWAP2 SWAP1 KECCAK256 SLOAD PUSH1 0xFF AND ISZERO PUSH2 0x4A7 JUMPI PUSH1 0x40 MLOAD PUSH4 0xBB70441B PUSH1 0xE0 SHL DUP2 MSTORE PUSH1 0x4 ADD PUSH1 0x40 MLOAD DUP1 SWAP2 SUB SWAP1 REVERT JUMPDEST PUSH1 0x40 DUP1 DUP6 ADD CALLDATALOAD PUSH1 0x0 SWAP1 DUP2 MSTORE PUSH1 0x4 PUSH1 0x20 MSTORE KECCAK256 SLOAD PUSH1 0x60 DUP6 ADD CALLDATALOAD LT PUSH2 0x4DC JUMPI PUSH1 0x40 MLOAD PUSH4 0xE66EA08F PUSH1 0xE0 SHL DUP2 MSTORE PUSH1 0x4 ADD PUSH1 0x40 MLOAD DUP1 SWAP2 SUB SWAP1 REVERT JUMPDEST PUSH2 0x4EC PUSH1 0x80 DUP6 ADD CALLDATALOAD PUSH2 0xE10 PUSH2 0x13E4 JUMP JUMPDEST TIMESTAMP GT ISZERO PUSH2 0x50C JUMPI PUSH1 0x40 MLOAD PUSH4 0xB67A7713 PUSH1 0xE0 SHL DUP2 MSTORE PUSH1 0x4 ADD PUSH1 0x40 MLOAD DUP1 SWAP2 SUB SWAP1 REVERT JUMPDEST PUSH2 0x515 DUP5 PUSH2 0xC83 JUMP JUMPDEST PUSH2 0x532 JUMPI PUSH1 0x40 MLOAD PUSH4 0x274CF401 PUSH1 0xE0 SHL DUP2 MSTORE PUSH1 0x4 ADD PUSH1 0x40 MLOAD DUP1 SWAP2 SUB SWAP1 REVERT JUMPDEST PUSH1 0x0 DUP2 DUP2 MSTORE PUSH1 0x5 PUSH1 0x20 SWAP1 DUP2 MSTORE PUSH1 0x40 DUP1 DUP4 KECCAK256 DUP1 SLOAD PUSH1 0xFF NOT AND PUSH1 0x1 OR SWAP1 SSTORE DUP7 DUP2 ADD CALLDATALOAD DUP4 MSTORE PUSH1 0x4 SWAP1 SWAP2 MSTORE SWAP1 KECCAK256 DUP1 SLOAD PUSH1 0x60 DUP7 ADD CALLDATALOAD SWAP1 DUP2 LT PUSH2 0x571 JUMPI PUSH2 0x571 PUSH2 0x13F7 JUMP JUMPDEST PUSH1 0x0 SWAP2 DUP3 MSTORE PUSH1 0x20 SWAP2 DUP3 SWAP1 KECCAK256 PUSH1 0x2 PUSH1 0x3 SWAP1 SWAP3 MUL ADD ADD DUP1 SLOAD PUSH1 0x1 ADD SWAP1 SSTORE PUSH1 0x40 DUP1 MLOAD PUSH1 0x60 DUP8 ADD CALLDATALOAD DUP2 MSTORE PUSH1 0x80 DUP8 ADD CALLDATALOAD SWAP3 DUP2 ADD SWAP3 SWAP1 SWAP3 MSTORE DUP3 SWAP2 DUP2 DUP8 ADD CALLDATALOAD SWAP2 PUSH32 0xE79F2326F5235CECEC005B291A88EAC9E9F418C219BE84FE8B9E8BA3547DCC6E SWAP2 ADD PUSH1 0x40 MLOAD DUP1 SWAP2 SUB SWAP1 LOG3 POP POP POP POP JUMP JUMPDEST PUSH1 0x3 PUSH1 0x20 MSTORE PUSH1 0x0 SWAP1 DUP2 MSTORE PUSH1 0x40 SWAP1 KECCAK256 DUP1 SLOAD PUSH1 0x1 DUP3 ADD DUP1 SLOAD SWAP2 SWAP3 SWAP2 PUSH2 0x5FD SWAP1 PUSH2 0x1394 JUMP JUMPDEST DUP1 PUSH1 0x1F ADD PUSH1 0x20 DUP1 SWAP2 DIV MUL PUSH1 0x20 ADD PUSH1 0x40 MLOAD SWAP1 DUP2 ADD PUSH1 0x40 MSTORE DUP1 SWAP3 SWAP2 SWAP1 DUP2 DUP2 MSTORE PUSH1 0x20 ADD DUP3 DUP1 SLOAD PUSH2 0x629 SWAP1 PUSH2 0x1394 JUMP JUMPDEST DUP1 ISZERO PUSH2 0x676 JUMPI DUP1 PUSH1 0x1F LT PUSH2 0x64B JUMPI PUSH2 0x100 DUP1 DUP4 SLOAD DIV MUL DUP4 MSTORE SWAP2 PUSH1 0x20 ADD SWAP2 PUSH2 0x676 JUMP JUMPDEST DUP3 ADD SWAP2 SWAP1 PUSH1 0x0 MSTORE PUSH1 0x20 PUSH1 0x0 KECCAK256 SWAP1 JUMPDEST DUP2 SLOAD DUP2 MSTORE SWAP1 PUSH1 0x1 ADD SWAP1 PUSH1 0x20 ADD DUP1 DUP4 GT PUSH2 0x659 JUMPI DUP3 SWAP1 SUB PUSH1 0x1F AND DUP3 ADD SWAP2 JUMPDEST POP POP POP POP PUSH1 0x2 DUP4 ADD SLOAD PUSH1 0x3 DUP5 ADD SLOAD PUSH1 0x4 SWAP1 SWAP5 ADD SLOAD SWAP3 SWAP4 SWAP1 SWAP3 SWAP1 SWAP2 POP PUSH1 0xFF AND DUP6 JUMP JUMPDEST PUSH1 0x40 DUP1 MLOAD PUSH1 0x20 DUP1 DUP3 ADD DUP6 SWAP1 MSTORE DUP2 DUP4 ADD DUP5 SWAP1 MSTORE DUP3 MLOAD DUP1 DUP4 SUB DUP5 ADD DUP2 MSTORE PUSH1 0x60 SWAP1 SWAP3 ADD SWAP1 SWAP3 MSTORE DUP1 MLOAD SWAP2 ADD KECCAK256 JUMPDEST SWAP3 SWAP2 POP POP JUMP JUMPDEST PUSH1 0x1 SLOAD PUSH1 0x1 PUSH1 0x1 PUSH1 0xA0 SHL SUB AND CALLER EQ PUSH2 0x6F0 JUMPI PUSH1 0x40 MLOAD PUSH3 0x82B429 PUSH1 0xE8 SHL DUP2 MSTORE PUSH1 0x4 ADD PUSH1 0x40 MLOAD DUP1 SWAP2 SUB SWAP1 REVERT JUMPDEST PUSH1 0x1 PUSH1 0x1 PUSH1 0xA0 SHL SUB DUP2 AND PUSH2 0x717 JUMPI PUSH1 0x40 MLOAD PUSH4 0x5EDFF10B PUSH1 0xE1 SHL DUP2 MSTORE PUSH1 0x4 ADD PUSH1 0x40 MLOAD DUP1 SWAP2 SUB SWAP1 REVERT JUMPDEST PUSH1 0x1 DUP1 SLOAD PUSH1 0x1 PUSH1 0x1 PUSH1 0xA0 SHL SUB DUP4 DUP2 AND PUSH1 0x1 PUSH1 0x1 PUSH1 0xA0 SHL SUB NOT DUP4 AND DUP2 OR SWAP1 SWAP4 SSTORE PUSH1 0x40 MLOAD SWAP2 AND SWAP2 SWAP1 DUP3 SWAP1 PUSH32 0x6D32C1367CC28EAB61CCA04E424F151519F02908AF46776BA8373EAEA407BAA9 SWAP1 PUSH1 0x0 SWAP1 LOG3 POP POP JUMP JUMPDEST PUSH1 0x4 PUSH1 0x20 MSTORE DUP2 PUSH1 0x0 MSTORE PUSH1 0x40 PUSH1 0x0 KECCAK256 DUP2 DUP2 SLOAD DUP2 LT PUSH2 0x785 JUMPI PUSH1 0x0 DUP1 REVERT JUMPDEST SWAP1 PUSH1 0x0 MSTORE PUSH1 0x20 PUSH1 0x0 KECCAK256 SWAP1 PUSH1 0x3 MUL ADD PUSH1 0x0 SWAP2 POP SWAP2 POP POP DUP1 PUSH1 0x0 ADD SLOAD SWAP1 DUP1 PUSH1 0x1 ADD DUP1 SLOAD PUSH2 0x7AF SWAP1 PUSH2 0x1394 JUMP JUMPDEST DUP1 PUSH1 0x1F ADD PUSH1 0x20 DUP1 SWAP2 DIV MUL PUSH1 0x20 ADD PUSH1 0x40 MLOAD SWAP1 DUP2 ADD PUSH1 0x40 MSTORE DUP1 SWAP3 SWAP2 SWAP1 DUP2 DUP2 MSTORE PUSH1 0x20 ADD DUP3 DUP1 SLOAD PUSH2 0x7DB SWAP1 PUSH2 0x1394 JUMP JUMPDEST DUP1 ISZERO PUSH2 0x828 JUMPI DUP1 PUSH1 0x1F LT PUSH2 0x7FD JUMPI PUSH2 0x100 DUP1 DUP4 SLOAD DIV MUL DUP4 MSTORE SWAP2 PUSH1 0x20 ADD SWAP2 PUSH2 0x828 JUMP JUMPDEST DUP3 ADD SWAP2 SWAP1 PUSH1 0x0 MSTORE PUSH1 0x20 PUSH1 0x0 KECCAK256 SWAP1 JUMPDEST DUP2 SLOAD DUP2 MSTORE SWAP1 PUSH1 0x1 ADD SWAP1 PUSH1 0x20 ADD DUP1 DUP4 GT PUSH2 0x80B JUMPI DUP3 SWAP1 SUB PUSH1 0x1F AND DUP3 ADD SWAP2 JUMPDEST POP POP POP POP POP SWAP1 DUP1 PUSH1 0x2 ADD SLOAD SWAP1 POP DUP4 JUMP JUMPDEST PUSH1 0x0 DUP2 DUP2 MSTORE PUSH1 0x4 PUSH1 0x20 MSTORE PUSH1 0x40 SWAP1 KECCAK256 SLOAD PUSH1 0x60 SWAP1 DUP2 SWAP1 DUP1 PUSH8 0xFFFFFFFFFFFFFFFF DUP2 GT ISZERO PUSH2 0x865 JUMPI PUSH2 0x865 PUSH2 0x11CC JUMP JUMPDEST PUSH1 0x40 MLOAD SWAP1 DUP1 DUP3 MSTORE DUP1 PUSH1 0x20 MUL PUSH1 0x20 ADD DUP3 ADD PUSH1 0x40 MSTORE DUP1 ISZERO PUSH2 0x898 JUMPI DUP2 PUSH1 0x20 ADD JUMPDEST PUSH1 0x60 DUP2 MSTORE PUSH1 0x20 ADD SWAP1 PUSH1 0x1 SWAP1 SUB SWAP1 DUP2 PUSH2 0x883 JUMPI SWAP1 POP JUMPDEST POP SWAP3 POP DUP1 PUSH8 0xFFFFFFFFFFFFFFFF DUP2 GT ISZERO PUSH2 0x8B4 JUMPI PUSH2 0x8B4 PUSH2 0x11CC JUMP JUMPDEST PUSH1 0x40 MLOAD SWAP1 DUP1 DUP3 MSTORE DUP1 PUSH1 0x20 MUL PUSH1 0x20 ADD DUP3 ADD PUSH1 0x40 MSTORE DUP1 ISZERO PUSH2 0x8DD JUMPI DUP2 PUSH1 0x20 ADD PUSH1 0x20 DUP3 MUL DUP1 CALLDATASIZE DUP4 CALLDATACOPY ADD SWAP1 POP JUMPDEST POP SWAP2 POP PUSH1 0x0 JUMPDEST DUP2 DUP2 LT ISZERO PUSH2 0xA1D JUMPI PUSH1 0x0 DUP6 DUP2 MSTORE PUSH1 0x4 PUSH1 0x20 MSTORE PUSH1 0x40 SWAP1 KECCAK256 DUP1 SLOAD DUP3 SWAP1 DUP2 LT PUSH2 0x90B JUMPI PUSH2 0x90B PUSH2 0x13F7 JUMP JUMPDEST SWAP1 PUSH1 0x0 MSTORE PUSH1 0x20 PUSH1 0x0 KECCAK256 SWAP1 PUSH1 0x3 MUL ADD PUSH1 0x1 ADD DUP1 SLOAD PUSH2 0x927 SWAP1 PUSH2 0x1394 JUMP JUMPDEST DUP1 PUSH1 0x1F ADD PUSH1 0x20 DUP1 SWAP2 DIV MUL PUSH1 0x20 ADD PUSH1 0x40 MLOAD SWAP1 DUP2 ADD PUSH1 0x40 MSTORE DUP1 SWAP3 SWAP2 SWAP1 DUP2 DUP2 MSTORE PUSH1 0x20 ADD DUP3 DUP1 SLOAD PUSH2 0x953 SWAP1 PUSH2 0x1394 JUMP JUMPDEST DUP1 ISZERO PUSH2 0x9A0 JUMPI DUP1 PUSH1 0x1F LT PUSH2 0x975 JUMPI PUSH2 0x100 DUP1 DUP4 SLOAD DIV MUL DUP4 MSTORE SWAP2 PUSH1 0x20 ADD SWAP2 PUSH2 0x9A0 JUMP JUMPDEST DUP3 ADD SWAP2 SWAP1 PUSH1 0x0 MSTORE PUSH1 0x20 PUSH1 0x0 KECCAK256 SWAP1 JUMPDEST DUP2 SLOAD DUP2 MSTORE SWAP1 PUSH1 0x1 ADD SWAP1 PUSH1 0x20 ADD DUP1 DUP4 GT PUSH2 0x983 JUMPI DUP3 SWAP1 SUB PUSH1 0x1F AND DUP3 ADD SWAP2 JUMPDEST POP POP POP POP POP DUP5 DUP3 DUP2 MLOAD DUP2 LT PUSH2 0x9B7 JUMPI PUSH2 0x9B7 PUSH2 0x13F7 JUMP JUMPDEST PUSH1 0x20 MUL PUSH1 0x20 ADD ADD DUP2 SWAP1 MSTORE POP PUSH1 0x4 PUSH1 0x0 DUP7 DUP2 MSTORE PUSH1 0x20 ADD SWAP1 DUP2 MSTORE PUSH1 0x20 ADD PUSH1 0x0 KECCAK256 DUP2 DUP2 SLOAD DUP2 LT PUSH2 0x9E6 JUMPI PUSH2 0x9E6 PUSH2 0x13F7 JUMP JUMPDEST SWAP1 PUSH1 0x0 MSTORE PUSH1 0x20 PUSH1 0x0 KECCAK256 SWAP1 PUSH1 0x3 MUL ADD PUSH1 0x2 ADD SLOAD DUP4 DUP3 DUP2 MLOAD DUP2 LT PUSH2 0xA0A JUMPI PUSH2 0xA0A PUSH2 0x13F7 JUMP JUMPDEST PUSH1 0x20 SWAP1 DUP2 MUL SWAP2 SWAP1 SWAP2 ADD ADD MSTORE PUSH1 0x1 ADD PUSH2 0x8E3 JUMP JUMPDEST POP POP SWAP2 POP SWAP2 JUMP JUMPDEST PUSH1 0x1 SLOAD PUSH1 0x1 PUSH1 0x1 PUSH1 0xA0 SHL SUB AND CALLER EQ PUSH2 0xA4E JUMPI PUSH1 0x40 MLOAD PUSH3 0x82B429 PUSH1 0xE8 SHL DUP2 MSTORE PUSH1 0x4 ADD PUSH1 0x40 MLOAD DUP1 SWAP2 SUB SWAP1 REVERT JUMPDEST PUSH1 0x0 DUP2 DUP2 MSTORE PUSH1 0x3 PUSH1 0x20 MSTORE PUSH1 0x40 SWAP1 KECCAK256 PUSH1 0x4 ADD SLOAD PUSH1 0xFF AND PUSH2 0xA80 JUMPI PUSH1 0x40 MLOAD PUSH4 0x399D9883 PUSH1 0xE2 SHL DUP2 MSTORE PUSH1 0x4 ADD PUSH1 0x40 MLOAD DUP1 SWAP2 SUB SWAP1 REVERT JUMPDEST PUSH1 0x0 SWAP1 DUP2 MSTORE PUSH1 0x3 PUSH1 0x20 MSTORE PUSH1 0x40 SWAP1 KECCAK256 PUSH1 0x4 ADD DUP1 SLOAD PUSH1 0xFF NOT AND SWAP1 SSTORE JUMP JUMPDEST PUSH1 0x1 SLOAD PUSH1 0x1 PUSH1 0x1 PUSH1 0xA0 SHL SUB AND CALLER EQ PUSH2 0xAC5 JUMPI PUSH1 0x40 MLOAD PUSH3 0x82B429 PUSH1 0xE8 SHL DUP2 MSTORE PUSH1 0x4 ADD PUSH1 0x40 MLOAD DUP1 SWAP2 SUB SWAP1 REVERT JUMPDEST DUP2 DUP4 LT PUSH2 0xAE5 JUMPI PUSH1 0x40 MLOAD PUSH4 0x536A71AF PUSH1 0xE0 SHL DUP2 MSTORE PUSH1 0x4 ADD PUSH1 0x40 MLOAD DUP1 SWAP2 SUB SWAP1 REVERT JUMPDEST DUP1 MLOAD PUSH1 0x0 SUB PUSH2 0xB07 JUMPI PUSH1 0x40 MLOAD PUSH4 0x39410641 PUSH1 0xE2 SHL DUP2 MSTORE PUSH1 0x4 ADD PUSH1 0x40 MLOAD DUP1 SWAP2 SUB SWAP1 REVERT JUMPDEST PUSH1 0x2 DUP1 SLOAD SWAP1 PUSH1 0x0 PUSH2 0xB17 DUP4 PUSH2 0x140D JUMP JUMPDEST SWAP1 SWAP2 SSTORE POP POP PUSH1 0x40 DUP1 MLOAD PUSH1 0xA0 DUP2 ADD DUP3 MSTORE PUSH1 0x2 SLOAD DUP1 DUP3 MSTORE PUSH1 0x20 DUP1 DUP4 ADD DUP9 DUP2 MSTORE DUP4 DUP6 ADD DUP9 SWAP1 MSTORE PUSH1 0x60 DUP5 ADD DUP8 SWAP1 MSTORE PUSH1 0x1 PUSH1 0x80 DUP6 ADD DUP2 SWAP1 MSTORE PUSH1 0x0 SWAP4 DUP5 MSTORE PUSH1 0x3 SWAP1 SWAP3 MSTORE SWAP4 SWAP1 SWAP2 KECCAK256 DUP3 MLOAD DUP2 SSTORE SWAP3 MLOAD SWAP2 SWAP3 SWAP2 SWAP1 DUP3 ADD SWAP1 PUSH2 0xB6F SWAP1 DUP3 PUSH2 0x1475 JUMP JUMPDEST POP PUSH1 0x40 DUP3 ADD MLOAD PUSH1 0x2 DUP3 ADD SSTORE PUSH1 0x60 DUP3 ADD MLOAD PUSH1 0x3 DUP3 ADD SSTORE PUSH1 0x80 SWAP1 SWAP2 ADD MLOAD PUSH1 0x4 SWAP1 SWAP2 ADD DUP1 SLOAD PUSH1 0xFF NOT AND SWAP2 ISZERO ISZERO SWAP2 SWAP1 SWAP2 OR SWAP1 SSTORE PUSH1 0x0 JUMPDEST DUP2 MLOAD DUP2 LT ISZERO PUSH2 0xC3E JUMPI PUSH1 0x4 PUSH1 0x0 PUSH1 0x2 SLOAD DUP2 MSTORE PUSH1 0x20 ADD SWAP1 DUP2 MSTORE PUSH1 0x20 ADD PUSH1 0x0 KECCAK256 PUSH1 0x40 MLOAD DUP1 PUSH1 0x60 ADD PUSH1 0x40 MSTORE DUP1 DUP4 DUP2 MSTORE PUSH1 0x20 ADD DUP5 DUP5 DUP2 MLOAD DUP2 LT PUSH2 0xBE2 JUMPI PUSH2 0xBE2 PUSH2 0x13F7 JUMP JUMPDEST PUSH1 0x20 SWAP1 DUP2 MUL SWAP2 SWAP1 SWAP2 ADD DUP2 ADD MLOAD DUP3 MSTORE PUSH1 0x0 SWAP2 DUP2 ADD DUP3 SWAP1 MSTORE DUP4 SLOAD PUSH1 0x1 DUP2 DUP2 ADD DUP7 SSTORE SWAP5 DUP4 MSTORE SWAP2 DUP2 SWAP1 KECCAK256 DUP4 MLOAD PUSH1 0x3 SWAP1 SWAP4 MUL ADD SWAP2 DUP3 SSTORE DUP3 ADD MLOAD SWAP2 SWAP3 SWAP1 SWAP2 SWAP1 DUP3 ADD SWAP1 PUSH2 0xC28 SWAP1 DUP3 PUSH2 0x1475 JUMP JUMPDEST POP PUSH1 0x40 SWAP2 SWAP1 SWAP2 ADD MLOAD PUSH1 0x2 SWAP1 SWAP2 ADD SSTORE PUSH1 0x1 ADD PUSH2 0xBA1 JUMP JUMPDEST POP PUSH1 0x2 SLOAD PUSH32 0xE7A0AAE5D733E07E246DEA86213A1AC1B0AA8554BDE889BB75C12752F44E53D9 DUP6 DUP6 DUP6 PUSH1 0x40 MLOAD PUSH2 0xC75 SWAP4 SWAP3 SWAP2 SWAP1 PUSH2 0x1534 JUMP JUMPDEST PUSH1 0x40 MLOAD DUP1 SWAP2 SUB SWAP1 LOG2 POP POP POP POP JUMP JUMPDEST PUSH1 0x0 DUP1 PUSH32 0x76A9D642C806C907EA3DEA2A312A262B4A16DD30D78440D444018584F3ACBF72 DUP4 CALLDATALOAD PUSH2 0xCB9 PUSH1 0x40 DUP7 ADD PUSH1 0x20 DUP8 ADD PUSH2 0x10D6 JUMP JUMPDEST PUSH1 0x40 DUP1 MLOAD PUSH1 0x20 DUP2 ADD SWAP5 SWAP1 SWAP5 MSTORE DUP4 DUP2 ADD SWAP3 SWAP1 SWAP3 MSTORE PUSH1 0x1 PUSH1 0x1 PUSH1 0xA0 SHL SUB AND PUSH1 0x60 DUP4 ADD MSTORE DUP5 ADD CALLDATALOAD PUSH1 0x80 DUP3 ADD MSTORE PUSH1 0xA0 ADD PUSH1 0x40 MLOAD PUSH1 0x20 DUP2 DUP4 SUB SUB DUP2 MSTORE SWAP1 PUSH1 0x40 MSTORE DUP1 MLOAD SWAP1 PUSH1 0x20 ADD KECCAK256 SWAP1 POP PUSH1 0x0 DUP1 SLOAD DUP3 PUSH1 0x40 MLOAD PUSH1 0x20 ADD PUSH2 0xD29 SWAP3 SWAP2 SWAP1 PUSH2 0x1901 PUSH1 0xF0 SHL DUP2 MSTORE PUSH1 0x2 DUP2 ADD SWAP3 SWAP1 SWAP3 MSTORE PUSH1 0x22 DUP3 ADD MSTORE PUSH1 0x42 ADD SWAP1 JUMP JUMPDEST PUSH1 0x40 DUP1 MLOAD PUSH1 0x1F NOT DUP2 DUP5 SUB ADD DUP2 MSTORE SWAP2 SWAP1 MSTORE DUP1 MLOAD PUSH1 0x20 SWAP1 SWAP2 ADD KECCAK256 SWAP1 POP PUSH1 0x0 PUSH2 0xD90 DUP3 PUSH2 0xD56 PUSH1 0xA0 DUP9 ADD DUP9 PUSH2 0x1559 JUMP JUMPDEST DUP1 DUP1 PUSH1 0x1F ADD PUSH1 0x20 DUP1 SWAP2 DIV MUL PUSH1 0x20 ADD PUSH1 0x40 MLOAD SWAP1 DUP2 ADD PUSH1 0x40 MSTORE DUP1 SWAP4 SWAP3 SWAP2 SWAP1 DUP2 DUP2 MSTORE PUSH1 0x20 ADD DUP4 DUP4 DUP1 DUP3 DUP5 CALLDATACOPY PUSH1 0x0 SWAP3 ADD SWAP2 SWAP1 SWAP2 MSTORE POP PUSH2 0xEC3 SWAP3 POP POP POP JUMP JUMPDEST PUSH1 0x1 SLOAD SWAP1 SWAP2 POP PUSH1 0x1 PUSH1 0x1 PUSH1 0xA0 SHL SUB DUP1 DUP4 AND SWAP2 AND EQ PUSH2 0xDC1 JUMPI PUSH1 0x40 MLOAD PUSH4 0x274CF401 PUSH1 0xE0 SHL DUP2 MSTORE PUSH1 0x4 ADD PUSH1 0x40 MLOAD DUP1 SWAP2 SUB SWAP1 REVERT JUMPDEST PUSH1 0x40 DUP1 MLOAD PUSH32 0xDD020EADFAB6F62908D5AA3ADC9590F09C66D4959B3F970FEB0BA67C9280A5F6 PUSH1 0x20 DUP1 DUP4 ADD SWAP2 SWAP1 SWAP2 MSTORE PUSH1 0x60 DUP9 DUP2 ADD CALLDATALOAD DUP4 DUP6 ADD MSTORE DUP9 DUP5 ADD CALLDATALOAD SWAP1 DUP4 ADD MSTORE PUSH1 0x80 DUP1 DUP10 ADD CALLDATALOAD DUP2 DUP5 ADD MSTORE DUP4 MLOAD DUP1 DUP5 SUB SWAP1 SWAP2 ADD DUP2 MSTORE PUSH1 0xA0 DUP4 ADD SWAP1 SWAP4 MSTORE DUP3 MLOAD SWAP3 ADD SWAP2 SWAP1 SWAP2 KECCAK256 PUSH1 0x0 DUP1 SLOAD PUSH2 0x1901 PUSH1 0xF0 SHL PUSH1 0xC0 DUP6 ADD MSTORE PUSH1 0xC2 DUP5 ADD MSTORE PUSH1 0xE2 DUP4 ADD DUP3 SWAP1 MSTORE SWAP1 SWAP2 PUSH2 0x102 ADD PUSH1 0x40 DUP1 MLOAD PUSH1 0x1F NOT DUP2 DUP5 SUB ADD DUP2 MSTORE SWAP2 SWAP1 MSTORE DUP1 MLOAD PUSH1 0x20 SWAP1 SWAP2 ADD KECCAK256 SWAP1 POP PUSH1 0x0 PUSH2 0xE72 DUP3 PUSH2 0xD56 PUSH1 0xC0 DUP12 ADD DUP12 PUSH2 0x1559 JUMP JUMPDEST SWAP1 POP PUSH2 0xE84 PUSH1 0x40 DUP10 ADD PUSH1 0x20 DUP11 ADD PUSH2 0x10D6 JUMP JUMPDEST PUSH1 0x1 PUSH1 0x1 PUSH1 0xA0 SHL SUB AND DUP2 PUSH1 0x1 PUSH1 0x1 PUSH1 0xA0 SHL SUB AND EQ PUSH2 0xEB5 JUMPI PUSH1 0x40 MLOAD PUSH4 0x274CF401 PUSH1 0xE0 SHL DUP2 MSTORE PUSH1 0x4 ADD PUSH1 0x40 MLOAD DUP1 SWAP2 SUB SWAP1 REVERT JUMPDEST POP PUSH1 0x1 SWAP8 SWAP7 POP POP POP POP POP POP POP JUMP JUMPDEST PUSH1 0x0 DUP2 MLOAD PUSH1 0x41 EQ PUSH2 0xEE7 JUMPI PUSH1 0x40 MLOAD PUSH4 0x4BE6321B PUSH1 0xE0 SHL DUP2 MSTORE PUSH1 0x4 ADD PUSH1 0x40 MLOAD DUP1 SWAP2 SUB SWAP1 REVERT JUMPDEST PUSH1 0x20 DUP3 ADD MLOAD PUSH1 0x40 DUP4 ADD MLOAD PUSH1 0x60 DUP5 ADD MLOAD PUSH1 0x0 BYTE PUSH1 0x1B DUP2 LT ISZERO PUSH2 0xF10 JUMPI PUSH2 0xF0D PUSH1 0x1B DUP3 PUSH2 0x15A7 JUMP JUMPDEST SWAP1 POP JUMPDEST DUP1 PUSH1 0xFF AND PUSH1 0x1B EQ ISZERO DUP1 ISZERO PUSH2 0xF28 JUMPI POP DUP1 PUSH1 0xFF AND PUSH1 0x1C EQ ISZERO JUMPDEST ISZERO PUSH2 0xF49 JUMPI PUSH1 0x40 MLOAD PUSH1 0x1 PUSH3 0xAAE177 PUSH1 0xE0 SHL SUB NOT DUP2 MSTORE PUSH1 0x4 ADD PUSH1 0x40 MLOAD DUP1 SWAP2 SUB SWAP1 REVERT JUMPDEST PUSH1 0x40 DUP1 MLOAD PUSH1 0x0 DUP1 DUP3 MSTORE PUSH1 0x20 DUP3 ADD DUP1 DUP5 MSTORE DUP10 SWAP1 MSTORE PUSH1 0xFF DUP5 AND SWAP3 DUP3 ADD SWAP3 SWAP1 SWAP3 MSTORE PUSH1 0x60 DUP2 ADD DUP6 SWAP1 MSTORE PUSH1 0x80 DUP2 ADD DUP5 SWAP1 MSTORE PUSH1 0x1 SWAP1 PUSH1 0xA0 ADD PUSH1 0x20 PUSH1 0x40 MLOAD PUSH1 0x20 DUP2 SUB SWAP1 DUP1 DUP5 SUB SWAP1 DUP6 GAS STATICCALL ISZERO DUP1 ISZERO PUSH2 0xF9D JUMPI RETURNDATASIZE PUSH1 0x0 DUP1 RETURNDATACOPY RETURNDATASIZE PUSH1 0x0 REVERT JUMPDEST POP POP PUSH1 0x40 MLOAD PUSH1 0x1F NOT ADD MLOAD SWAP2 POP POP PUSH1 0x1 PUSH1 0x1 PUSH1 0xA0 SHL SUB DUP2 AND PUSH2 0xFD1 JUMPI PUSH1 0x40 MLOAD PUSH4 0x36409D85 PUSH1 0xE0 SHL DUP2 MSTORE PUSH1 0x4 ADD PUSH1 0x40 MLOAD DUP1 SWAP2 SUB SWAP1 REVERT JUMPDEST SWAP7 SWAP6 POP POP POP POP POP POP JUMP JUMPDEST PUSH1 0x0 PUSH1 0x20 DUP3 DUP5 SUB SLT ISZERO PUSH2 0xFED JUMPI PUSH1 0x0 DUP1 REVERT JUMPDEST POP CALLDATALOAD SWAP2 SWAP1 POP JUMP JUMPDEST PUSH1 0x0 PUSH1 0x20 DUP3 DUP5 SUB SLT ISZERO PUSH2 0x1006 JUMPI PUSH1 0x0 DUP1 REVERT JUMPDEST DUP2 CALLDATALOAD PUSH8 0xFFFFFFFFFFFFFFFF DUP2 GT ISZERO PUSH2 0x101D JUMPI PUSH1 0x0 DUP1 REVERT JUMPDEST DUP3 ADD PUSH1 0xE0 DUP2 DUP6 SUB SLT ISZERO PUSH2 0x102F JUMPI PUSH1 0x0 DUP1 REVERT JUMPDEST SWAP4 SWAP3 POP POP POP JUMP JUMPDEST PUSH1 0x0 DUP2 MLOAD DUP1 DUP5 MSTORE PUSH1 0x0 JUMPDEST DUP2 DUP2 LT ISZERO PUSH2 0x105C JUMPI PUSH1 0x20 DUP2 DUP6 ADD DUP2 ADD MLOAD DUP7 DUP4 ADD DUP3 ADD MSTORE ADD PUSH2 0x1040 JUMP JUMPDEST POP PUSH1 0x0 PUSH1 0x20 DUP3 DUP7 ADD ADD MSTORE PUSH1 0x20 PUSH1 0x1F NOT PUSH1 0x1F DUP4 ADD AND DUP6 ADD ADD SWAP2 POP POP SWAP3 SWAP2 POP POP JUMP JUMPDEST DUP6 DUP2 MSTORE PUSH1 0xA0 PUSH1 0x20 DUP3 ADD MSTORE PUSH1 0x0 PUSH2 0x1095 PUSH1 0xA0 DUP4 ADD DUP8 PUSH2 0x1036 JUMP JUMPDEST PUSH1 0x40 DUP4 ADD SWAP6 SWAP1 SWAP6 MSTORE POP PUSH1 0x60 DUP2 ADD SWAP3 SWAP1 SWAP3 MSTORE ISZERO ISZERO PUSH1 0x80 SWAP1 SWAP2 ADD MSTORE SWAP3 SWAP2 POP POP JUMP JUMPDEST PUSH1 0x0 DUP1 PUSH1 0x40 DUP4 DUP6 SUB SLT ISZERO PUSH2 0x10C7 JUMPI PUSH1 0x0 DUP1 REVERT JUMPDEST POP POP DUP1 CALLDATALOAD SWAP3 PUSH1 0x20 SWAP1 SWAP2 ADD CALLDATALOAD SWAP2 POP JUMP JUMPDEST PUSH1 0x0 PUSH1 0x20 DUP3 DUP5 SUB SLT ISZERO PUSH2 0x10E8 JUMPI PUSH1 0x0 DUP1 REVERT JUMPDEST DUP2 CALLDATALOAD PUSH1 0x1 PUSH1 0x1 PUSH1 0xA0 SHL SUB DUP2 AND DUP2 EQ PUSH2 0x102F JUMPI PUSH1 0x0 DUP1 REVERT JUMPDEST DUP4 DUP2 MSTORE PUSH1 0x60 PUSH1 0x20 DUP3 ADD MSTORE PUSH1 0x0 PUSH2 0x1118 PUSH1 0x60 DUP4 ADD DUP6 PUSH2 0x1036 JUMP JUMPDEST SWAP1 POP DUP3 PUSH1 0x40 DUP4 ADD MSTORE SWAP5 SWAP4 POP POP POP POP JUMP JUMPDEST PUSH1 0x0 PUSH1 0x40 DUP3 ADD PUSH1 0x40 DUP4 MSTORE DUP1 DUP6 MLOAD DUP1 DUP4 MSTORE PUSH1 0x60 DUP6 ADD SWAP2 POP PUSH1 0x60 DUP2 PUSH1 0x5 SHL DUP7 ADD ADD SWAP3 POP PUSH1 0x20 DUP8 ADD PUSH1 0x0 JUMPDEST DUP3 DUP2 LT ISZERO PUSH2 0x1181 JUMPI PUSH1 0x5F NOT DUP8 DUP7 SUB ADD DUP5 MSTORE PUSH2 0x116C DUP6 DUP4 MLOAD PUSH2 0x1036 JUMP JUMPDEST SWAP5 POP PUSH1 0x20 SWAP4 DUP5 ADD SWAP4 SWAP2 SWAP1 SWAP2 ADD SWAP1 PUSH1 0x1 ADD PUSH2 0x1150 JUMP JUMPDEST POP POP POP POP DUP3 DUP2 SUB PUSH1 0x20 DUP5 ADD MSTORE DUP1 DUP5 MLOAD DUP1 DUP4 MSTORE PUSH1 0x20 DUP4 ADD SWAP2 POP PUSH1 0x20 DUP7 ADD SWAP3 POP PUSH1 0x0 JUMPDEST DUP2 DUP2 LT ISZERO PUSH2 0x11C0 JUMPI DUP4 MLOAD DUP4 MSTORE PUSH1 0x20 SWAP4 DUP5 ADD SWAP4 SWAP1 SWAP3 ADD SWAP2 PUSH1 0x1 ADD PUSH2 0x11A2 JUMP JUMPDEST POP SWAP1 SWAP7 SWAP6 POP POP POP POP POP POP JUMP JUMPDEST PUSH4 0x4E487B71 PUSH1 0xE0 SHL PUSH1 0x0 MSTORE PUSH1 0x41 PUSH1 0x4 MSTORE PUSH1 0x24 PUSH1 0x0 REVERT JUMPDEST PUSH1 0x40 MLOAD PUSH1 0x1F DUP3 ADD PUSH1 0x1F NOT AND DUP2 ADD PUSH8 0xFFFFFFFFFFFFFFFF DUP2 GT DUP3 DUP3 LT OR ISZERO PUSH2 0x120B JUMPI PUSH2 0x120B PUSH2 0x11CC JUMP JUMPDEST PUSH1 0x40 MSTORE SWAP2 SWAP1 POP JUMP JUMPDEST PUSH1 0x0 DUP3 PUSH1 0x1F DUP4 ADD SLT PUSH2 0x1224 JUMPI PUSH1 0x0 DUP1 REVERT JUMPDEST DUP2 CALLDATALOAD PUSH8 0xFFFFFFFFFFFFFFFF DUP2 GT ISZERO PUSH2 0x123E JUMPI PUSH2 0x123E PUSH2 0x11CC JUMP JUMPDEST PUSH2 0x1251 PUSH1 0x1F DUP3 ADD PUSH1 0x1F NOT AND PUSH1 0x20 ADD PUSH2 0x11E2 JUMP JUMPDEST DUP2 DUP2 MSTORE DUP5 PUSH1 0x20 DUP4 DUP7 ADD ADD GT ISZERO PUSH2 0x1266 JUMPI PUSH1 0x0 DUP1 REVERT JUMPDEST DUP2 PUSH1 0x20 DUP6 ADD PUSH1 0x20 DUP4 ADD CALLDATACOPY PUSH1 0x0 SWAP2 DUP2 ADD PUSH1 0x20 ADD SWAP2 SWAP1 SWAP2 MSTORE SWAP4 SWAP3 POP POP POP JUMP JUMPDEST PUSH1 0x0 DUP1 PUSH1 0x0 DUP1 PUSH1 0x80 DUP6 DUP8 SUB SLT ISZERO PUSH2 0x1299 JUMPI PUSH1 0x0 DUP1 REVERT JUMPDEST DUP5 CALLDATALOAD PUSH8 0xFFFFFFFFFFFFFFFF DUP2 GT ISZERO PUSH2 0x12B0 JUMPI PUSH1 0x0 DUP1 REVERT JUMPDEST PUSH2 0x12BC DUP8 DUP3 DUP9 ADD PUSH2 0x1213 JUMP JUMPDEST SWAP5 POP POP PUSH1 0x20 DUP6 ADD CALLDATALOAD SWAP3 POP PUSH1 0x40 DUP6 ADD CALLDATALOAD SWAP2 POP PUSH1 0x60 DUP6 ADD CALLDATALOAD PUSH8 0xFFFFFFFFFFFFFFFF DUP2 GT ISZERO PUSH2 0x12E7 JUMPI PUSH1 0x0 DUP1 REVERT JUMPDEST DUP6 ADD PUSH1 0x1F DUP2 ADD DUP8 SGT PUSH2 0x12F8 JUMPI PUSH1 0x0 DUP1 REVERT JUMPDEST DUP1 CALLDATALOAD PUSH8 0xFFFFFFFFFFFFFFFF DUP2 GT ISZERO PUSH2 0x1312 JUMPI PUSH2 0x1312 PUSH2 0x11CC JUMP JUMPDEST DUP1 PUSH1 0x5 SHL PUSH2 0x1322 PUSH1 0x20 DUP3 ADD PUSH2 0x11E2 JUMP JUMPDEST SWAP2 DUP3 MSTORE PUSH1 0x20 DUP2 DUP5 ADD DUP2 ADD SWAP3 SWAP1 DUP2 ADD SWAP1 DUP11 DUP5 GT ISZERO PUSH2 0x133E JUMPI PUSH1 0x0 DUP1 REVERT JUMPDEST PUSH1 0x20 DUP6 ADD SWAP3 POP JUMPDEST DUP4 DUP4 LT ISZERO PUSH2 0x1385 JUMPI DUP3 CALLDATALOAD PUSH8 0xFFFFFFFFFFFFFFFF DUP2 GT ISZERO PUSH2 0x1364 JUMPI PUSH1 0x0 DUP1 REVERT JUMPDEST PUSH2 0x1373 DUP13 PUSH1 0x20 DUP4 DUP10 ADD ADD PUSH2 0x1213 JUMP JUMPDEST DUP4 MSTORE POP PUSH1 0x20 SWAP3 DUP4 ADD SWAP3 SWAP1 SWAP2 ADD SWAP1 PUSH2 0x1345 JUMP JUMPDEST SWAP8 SWAP11 SWAP7 SWAP10 POP SWAP5 SWAP8 POP POP POP POP POP POP JUMP JUMPDEST PUSH1 0x1 DUP2 DUP2 SHR SWAP1 DUP3 AND DUP1 PUSH2 0x13A8 JUMPI PUSH1 0x7F DUP3 AND SWAP2 POP JUMPDEST PUSH1 0x20 DUP3 LT DUP2 SUB PUSH2 0x13C8 JUMPI PUSH4 0x4E487B71 PUSH1 0xE0 SHL PUSH1 0x0 MSTORE PUSH1 0x22 PUSH1 0x4 MSTORE PUSH1 0x24 PUSH1 0x0 REVERT JUMPDEST POP SWAP2 SWAP1 POP JUMP JUMPDEST PUSH4 0x4E487B71 PUSH1 0xE0 SHL PUSH1 0x0 MSTORE PUSH1 0x11 PUSH1 0x4 MSTORE PUSH1 0x24 PUSH1 0x0 REVERT JUMPDEST DUP1 DUP3 ADD DUP1 DUP3 GT ISZERO PUSH2 0x6C0 JUMPI PUSH2 0x6C0 PUSH2 0x13CE JUMP JUMPDEST PUSH4 0x4E487B71 PUSH1 0xE0 SHL PUSH1 0x0 MSTORE PUSH1 0x32 PUSH1 0x4 MSTORE PUSH1 0x24 PUSH1 0x0 REVERT JUMPDEST PUSH1 0x0 PUSH1 0x1 DUP3 ADD PUSH2 0x141F JUMPI PUSH2 0x141F PUSH2 0x13CE JUMP JUMPDEST POP PUSH1 0x1 ADD SWAP1 JUMP JUMPDEST PUSH1 0x1F DUP3 GT ISZERO PUSH2 0x1470 JUMPI DUP1 PUSH1 0x0 MSTORE PUSH1 0x20 PUSH1 0x0 KECCAK256 PUSH1 0x1F DUP5 ADD PUSH1 0x5 SHR DUP2 ADD PUSH1 0x20 DUP6 LT ISZERO PUSH2 0x144D JUMPI POP DUP1 JUMPDEST PUSH1 0x1F DUP5 ADD PUSH1 0x5 SHR DUP3 ADD SWAP2 POP JUMPDEST DUP2 DUP2 LT ISZERO PUSH2 0x146D JUMPI PUSH1 0x0 DUP2 SSTORE PUSH1 0x1 ADD PUSH2 0x1459 JUMP JUMPDEST POP POP JUMPDEST POP POP POP JUMP JUMPDEST DUP2 MLOAD PUSH8 0xFFFFFFFFFFFFFFFF DUP2 GT ISZERO PUSH2 0x148F JUMPI PUSH2 0x148F PUSH2 0x11CC JUMP JUMPDEST PUSH2 0x14A3 DUP2 PUSH2 0x149D DUP5 SLOAD PUSH2 0x1394 JUMP JUMPDEST DUP5 PUSH2 0x1426 JUMP JUMPDEST PUSH1 0x20 PUSH1 0x1F DUP3 GT PUSH1 0x1 DUP2 EQ PUSH2 0x14D7 JUMPI PUSH1 0x0 DUP4 ISZERO PUSH2 0x14BF JUMPI POP DUP5 DUP3 ADD MLOAD JUMPDEST PUSH1 0x0 NOT PUSH1 0x3 DUP6 SWAP1 SHL SHR NOT AND PUSH1 0x1 DUP5 SWAP1 SHL OR DUP5 SSTORE PUSH2 0x146D JUMP JUMPDEST PUSH1 0x0 DUP5 DUP2 MSTORE PUSH1 0x20 DUP2 KECCAK256 PUSH1 0x1F NOT DUP6 AND SWAP2 JUMPDEST DUP3 DUP2 LT ISZERO PUSH2 0x1507 JUMPI DUP8 DUP6 ADD MLOAD DUP3 SSTORE PUSH1 0x20 SWAP5 DUP6 ADD SWAP5 PUSH1 0x1 SWAP1 SWAP3 ADD SWAP2 ADD PUSH2 0x14E7 JUMP JUMPDEST POP DUP5 DUP3 LT ISZERO PUSH2 0x1525 JUMPI DUP7 DUP5 ADD MLOAD PUSH1 0x0 NOT PUSH1 0x3 DUP8 SWAP1 SHL PUSH1 0xF8 AND SHR NOT AND DUP2 SSTORE JUMPDEST POP POP POP POP PUSH1 0x1 SWAP1 DUP2 SHL ADD SWAP1 SSTORE POP JUMP JUMPDEST PUSH1 0x60 DUP2 MSTORE PUSH1 0x0 PUSH2 0x1547 PUSH1 0x60 DUP4 ADD DUP7 PUSH2 0x1036 JUMP JUMPDEST PUSH1 0x20 DUP4 ADD SWAP5 SWAP1 SWAP5 MSTORE POP PUSH1 0x40 ADD MSTORE SWAP2 SWAP1 POP JUMP JUMPDEST PUSH1 0x0 DUP1 DUP4 CALLDATALOAD PUSH1 0x1E NOT DUP5 CALLDATASIZE SUB ADD DUP2 SLT PUSH2 0x1570 JUMPI PUSH1 0x0 DUP1 REVERT JUMPDEST DUP4 ADD DUP1 CALLDATALOAD SWAP2 POP PUSH8 0xFFFFFFFFFFFFFFFF DUP3 GT ISZERO PUSH2 0x158B JUMPI PUSH1 0x0 DUP1 REVERT JUMPDEST PUSH1 0x20 ADD SWAP2 POP CALLDATASIZE DUP2 SWAP1 SUB DUP3 SGT ISZERO PUSH2 0x15A0 JUMPI PUSH1 0x0 DUP1 REVERT JUMPDEST SWAP3 POP SWAP3 SWAP1 POP JUMP JUMPDEST PUSH1 0xFF DUP2 DUP2 AND DUP4 DUP3 AND ADD SWAP1 DUP2 GT ISZERO PUSH2 0x6C0 JUMPI PUSH2 0x6C0 PUSH2 0x13CE JUMP INVALID LOG2 PUSH5 0x6970667358 0x22 SLT KECCAK256 0xDC 0x28 0x26 0xD STATICCALL DUP8 0xCE SGT SWAP2 SWAP7 DUP6 0xCB 0x2B 0xE8 0x24 EXTCODECOPY BLOCKHASH DUP16 DUP15 PUSH30 0xA45B505DDD9DB4FA2C91BE3764736F6C634300081C003300000000000000 "},"methodIdentifiers":{"CREDENTIAL_TYPEHASH()":"27d35000","DOMAIN_SEPARATOR()":"3644e515","VOTE_TYPEHASH()":"86522973","calculateNullifier(bytes32,uint256)":"656e80a1","candidates(uint256,uint256)":"7de14242","createElection(string,uint256,uint256,string[])":"bc279047","currentElectionId()":"98ecf2a0","elections(uint256)":"5e6fef01","endElection(uint256)":"9c98bcbb","getCandidateCount(uint256)":"26f6a2aa","getDomainSeparator()":"ed24911d","getResults(uint256)":"81a60c0d","isNullifierUsed(bytes32)":"22dc7b4c","issuer()":"1d143848","updateIssuer(address)":"78312435","usedNullifiers(bytes32)":"206137aa","vote((bytes32,address,uint256,uint256,uint256,bytes,bytes))":"3b58fd3a"}}}}}