{
  "_format": "hh-sol-artifact-1",
  "contractName": "VotingAnonymous",
  "sourceName": "contracts/VotingAnonymous.sol",
  "abi": [
    {
      "inputs": [
        {
          "internalType": "address",
          "name": "_admin",
          "type": "address"
        }
      ],
      "stateMutability": "nonpayable",
      "type": "constructor"
    },
    {
      "anonymous": false,
      "inputs": [
        {
          "indexed": true,
          "internalType": "uint256",
          "name": "electionId",
          "type": "uint256"
        },
        {
          "indexed": false,
          "internalType": "string",
          "name": "title",
          "type": "string"
        },
        {
          "indexed": false,
          "internalType": "uint256",
          "name": "startTime",
          "type": "uint256"
        },
        {
          "indexed": false,
          "internalType": "uint256",
          "name": "endTime",
          "type": "uint256"
        }
      ],
      "name": "ElectionCreated",
      "type": "event"
    },
    {
      "anonymous": false,
      "inputs": [
        {
          "indexed": true,
          "internalType": "uint256",
          "name": "electionId",
          "type": "uint256"
        },
        {
          "indexed": false,
          "internalType": "uint256",
          "name": "candidateId",
          "type": "uint256"
        },
        {
          "indexed": true,
          "internalType": "bytes32",
          "name": "commitment",
          "type": "bytes32"
        }
      ],
      "name": "VoteCast",
      "type": "event"
    },
    {
      "inputs": [],
      "name": "admin",
      "outputs": [
        {
          "internalType": "address",
          "name": "",
          "type": "address"
        }
      ],
      "stateMutability": "view",
      "type": "function"
    },
    {
      "inputs": [
        {
          "internalType": "uint256",
          "name": "",
          "type": "uint256"
        },
        {
          "internalType": "uint256",
          "name": "",
          "type": "uint256"
        }
      ],
      "name": "candidates",
      "outputs": [
        {
          "internalType": "uint256",
          "name": "id",
          "type": "uint256"
        },
        {
          "internalType": "string",
          "name": "name",
          "type": "string"
        },
        {
          "internalType": "uint256",
          "name": "voteCount",
          "type": "uint256"
        }
      ],
      "stateMutability": "view",
      "type": "function"
    },
    {
      "inputs": [
        {
          "internalType": "string",
          "name": "_title",
          "type": "string"
        },
        {
          "internalType": "uint256",
          "name": "_startTime",
          "type": "uint256"
        },
        {
          "internalType": "uint256",
          "name": "_endTime",
          "type": "uint256"
        },
        {
          "internalType": "string[]",
          "name": "_candidateNames",
          "type": "string[]"
        }
      ],
      "name": "createElection",
      "outputs": [],
      "stateMutability": "nonpayable",
      "type": "function"
    },
    {
      "inputs": [],
      "name": "currentElectionId",
      "outputs": [
        {
          "internalType": "uint256",
          "name": "",
          "type": "uint256"
        }
      ],
      "stateMutability": "view",
      "type": "function"
    },
    {
      "inputs": [
        {
          "internalType": "uint256",
          "name": "",
          "type": "uint256"
        }
      ],
      "name": "elections",
      "outputs": [
        {
          "internalType": "uint256",
          "name": "id",
          "type": "uint256"
        },
        {
          "internalType": "string",
          "name": "title",
          "type": "string"
        },
        {
          "internalType": "uint256",
          "name": "startTime",
          "type": "uint256"
        },
        {
          "internalType": "uint256",
          "name": "endTime",
          "type": "uint256"
        },
        {
          "internalType": "bool",
          "name": "isActive",
          "type": "bool"
        }
      ],
      "stateMutability": "view",
      "type": "function"
    },
    {
      "inputs": [
        {
          "internalType": "uint256",
          "name": "_electionId",
          "type": "uint256"
        }
      ],
      "name": "endElection",
      "outputs": [],
      "stateMutability": "nonpayable",
      "type": "function"
    },
    {
      "inputs": [
        {
          "internalType": "uint256",
          "name": "_electionId",
          "type": "uint256"
        }
      ],
      "name": "getCandidateCount",
      "outputs": [
        {
          "internalType": "uint256",
          "name": "",
          "type": "uint256"
        }
      ],
      "stateMutability": "view",
      "type": "function"
    },
    {
      "inputs": [
        {
          "internalType": "uint256",
          "name": "_electionId",
          "type": "uint256"
        }
      ],
      "name": "getResults",
      "outputs": [
        {
          "internalType": "string[]",
          "name": "names",
          "type": "string[]"
        },
        {
          "internalType": "uint256[]",
          "name": "votes",
          "type": "uint256[]"
        }
      ],
      "stateMutability": "view",
      "type": "function"
    },
    {
      "inputs": [
        {
          "internalType": "uint256",
          "name": "_electionId",
          "type": "uint256"
        },
        {
          "internalType": "bytes32",
          "name": "_commitment",
          "type": "bytes32"
        }
      ],
      "name": "hasVoted",
      "outputs": [
        {
          "internalType": "bool",
          "name": "",
          "type": "bool"
        }
      ],
      "stateMutability": "view",
      "type": "function"
    },
    {
      "inputs": [
        {
          "internalType": "uint256",
          "name": "",
          "type": "uint256"
        },
        {
          "internalType": "bytes32",
          "name": "",
          "type": "bytes32"
        }
      ],
      "name": "usedCommitments",
      "outputs": [
        {
          "internalType": "bool",
          "name": "",
          "type": "bool"
        }
      ],
      "stateMutability": "view",
      "type": "function"
    },
    {
      "inputs": [
        {
          "internalType": "uint256",
          "name": "electionId",
          "type": "uint256"
        },
        {
          "internalType": "uint256",
          "name": "candidateId",
          "type": "uint256"
        },
        {
          "internalType": "bytes32",
          "name": "commitment",
          "type": "bytes32"
        },
        {
          "internalType": "bytes",
          "name": "signature",
          "type": "bytes"
        }
      ],
      "name": "vote",
      "outputs": [],
      "stateMutability": "nonpayable",
      "type": "function"
    }
  ],
  "bytecode": "0x6080604052348015600f57600080fd5b50604051611443380380611443833981016040819052602c9160a9565b6001600160a01b03811660855760405162461bcd60e51b815260206004820152601c60248201527f41646d696e20616464726573732063616e6e6f74206265207a65726f00000000604482015260640160405180910390fd5b600080546001600160a01b0319166001600160a01b039290921691909117905560d7565b60006020828403121560ba57600080fd5b81516001600160a01b038116811460d057600080fd5b9392505050565b61135d806100e66000396000f3fe608060405234801561001057600080fd5b50600436106100a95760003560e01c80637de14242116100715780637de142421461018657806381a60c0d146101a857806398ecf2a0146101c95780639c98bcbb146101d2578063bc279047146101e5578063f851a440146101f857600080fd5b80630e54ceea146100ae57806326f6a2aa146100f15780635e6fef011461011f57806374417bf414610143578063752fe5c114610171575b600080fd5b6100dc6100bc366004610d6c565b600460209081526000928352604080842090915290825290205460ff1681565b60405190151581526020015b60405180910390f35b6101116100ff366004610d8e565b60009081526003602052604090205490565b6040519081526020016100e8565b61013261012d366004610d8e565b610223565b6040516100e8959493929190610ded565b6100dc610151366004610d6c565b600091825260046020908152604080842092845291905290205460ff1690565b61018461017f366004610ec8565b6102df565b005b610199610194366004610d6c565b61068f565b6040516100e893929190610f36565b6101bb6101b6366004610d8e565b61075e565b6040516100e8929190610f5f565b61011160015481565b6101846101e0366004610d8e565b61094a565b6101846101f336600461102a565b6109e9565b60005461020b906001600160a01b031681565b6040516001600160a01b0390911681526020016100e8565b600260205260009081526040902080546001820180549192916102459061113b565b80601f01602080910402602001604051908101604052809291908181526020018280546102719061113b565b80156102be5780601f10610293576101008083540402835291602001916102be565b820191906000526020600020905b8154815290600101906020018083116102a157829003601f168201915b50505050600283015460038401546004909401549293909290915060ff1685565b6000848152600260209081526040808320815160a0810190925280548252600181018054899594840191906103139061113b565b80601f016020809104026020016040519081016040528092919081815260200182805461033f9061113b565b801561038c5780601f106103615761010080835404028352916020019161038c565b820191906000526020600020905b81548152906001019060200180831161036f57829003601f168201915b5050509183525050600282015460208201526003820154604082015260049091015460ff161515606090910152608081015190915061040b5760405162461bcd60e51b8152602060048201526016602482015275456c656374696f6e206973206e6f742061637469766560501b60448201526064015b60405180910390fd5b806040015142101561045f5760405162461bcd60e51b815260206004820152601860248201527f456c656374696f6e20686173206e6f74207374617274656400000000000000006044820152606401610402565b80606001514211156104a85760405162461bcd60e51b8152602060048201526012602482015271115b1958dd1a5bdb881a185cc8195b99195960721b6044820152606401610402565b600086815260046020908152604080832087845290915290205460ff161561052b5760405162461bcd60e51b815260206004820152603060248201527f436f6d6d69746d656e7420616c72656164792075736564202d20646f75626c6560448201526f081d9bdd1a5b99c819195d1958dd195960821b6064820152608401610402565b600086815260036020526040902054851061057f5760405162461bcd60e51b8152602060048201526014602482015273125b9d985b1a590818d85b991a59185d1948125160621b6044820152606401610402565b6105898484610c22565b6105e95760405162461bcd60e51b815260206004820152602b60248201527f496e76616c69642061646d696e207369676e6174757265202d20756e6175746860448201526a6f72697a656420766f746560a81b6064820152608401610402565b60008681526004602090815260408083208784528252808320805460ff191660011790558883526003909152902080548690811061062957610629611175565b6000918252602082206002600390920201018054916106478361118b565b919050555083867f96c313364ec07441c94195f44ed1e5f2656059c98a7c0c68466dac90c6fd8bf98760405161067f91815260200190565b60405180910390a3505050505050565b600360205281600052604060002081815481106106ab57600080fd5b9060005260206000209060030201600091509150508060000154908060010180546106d59061113b565b80601f01602080910402602001604051908101604052809291908181526020018280546107019061113b565b801561074e5780601f106107235761010080835404028352916020019161074e565b820191906000526020600020905b81548152906001019060200180831161073157829003601f168201915b5050505050908060020154905083565b60008181526003602052604090205460609081908067ffffffffffffffff81111561078b5761078b610e25565b6040519080825280602002602001820160405280156107be57816020015b60608152602001906001900390816107a95790505b5092508067ffffffffffffffff8111156107da576107da610e25565b604051908082528060200260200182016040528015610803578160200160208202803683370190505b50915060005b8181101561094357600085815260036020526040902080548290811061083157610831611175565b9060005260206000209060030201600101805461084d9061113b565b80601f01602080910402602001604051908101604052809291908181526020018280546108799061113b565b80156108c65780601f1061089b576101008083540402835291602001916108c6565b820191906000526020600020905b8154815290600101906020018083116108a957829003601f168201915b50505050508482815181106108dd576108dd611175565b602002602001018190525060036000868152602001908152602001600020818154811061090c5761090c611175565b90600052602060002090600302016002015483828151811061093057610930611175565b6020908102919091010152600101610809565b5050915091565b6000546001600160a01b031633146109745760405162461bcd60e51b8152600401610402906111b2565b60008181526002602052604090206004015460ff166109ce5760405162461bcd60e51b8152602060048201526016602482015275115b1958dd1a5bdb88185b1c9958591e48195b99195960521b6044820152606401610402565b6000908152600260205260409020600401805460ff19169055565b6000546001600160a01b03163314610a135760405162461bcd60e51b8152600401610402906111b2565b818310610a575760405162461bcd60e51b8152602060048201526012602482015271496e76616c69642074696d652072616e676560701b6044820152606401610402565b6000815111610aa85760405162461bcd60e51b815260206004820152601f60248201527f4174206c65617374206f6e652063616e646964617465207265717569726564006044820152606401610402565b60018054906000610ab88361118b565b90915550506040805160a08101825260018054808352602080840189815284860189905260608501889052608085018490526000928352600290915293902082518155925191929190820190610b0e9082611243565b5060408201516002820155606082015160038201556080909101516004909101805460ff191691151591909117905560005b8151811015610bdd576003600060015481526020019081526020016000206040518060600160405280838152602001848481518110610b8157610b81611175565b602090810291909101810151825260009181018290528354600181810186559483529181902083516003909302019182558201519192909190820190610bc79082611243565b5060409190910151600290910155600101610b40565b506001547fe7a0aae5d733e07e246dea86213a1ac1b0aa8554bde889bb75c12752f44e53d9858585604051610c1493929190611302565b60405180910390a250505050565b600080610c7c846040517f19457468657265756d205369676e6564204d6573736167653a0a3332000000006020820152603c8101829052600090605c01604051602081830303815290604052805190602001209050919050565b90506000610c8a8285610ca4565b6000546001600160a01b0390811691161495945050505050565b60008151604114610cf75760405162461bcd60e51b815260206004820152601860248201527f496e76616c6964207369676e6174757265206c656e67746800000000000000006044820152606401610402565b602082810151604080850151606080870151835160008082529681018086528a9052951a928501839052840183905260808401819052919260019060a0016020604051602081039080840390855afa158015610d57573d6000803e3d6000fd5b5050604051601f190151979650505050505050565b60008060408385031215610d7f57600080fd5b50508035926020909101359150565b600060208284031215610da057600080fd5b5035919050565b6000815180845260005b81811015610dcd57602081850181015186830182015201610db1565b506000602082860101526020601f19601f83011685010191505092915050565b85815260a060208201526000610e0660a0830187610da7565b6040830195909552506060810192909252151560809091015292915050565b634e487b7160e01b600052604160045260246000fd5b604051601f8201601f1916810167ffffffffffffffff81118282101715610e6457610e64610e25565b604052919050565b60008067ffffffffffffffff841115610e8757610e87610e25565b50601f8301601f1916602001610e9c81610e3b565b915050828152838383011115610eb157600080fd5b828260208301376000602084830101529392505050565b60008060008060808587031215610ede57600080fd5b843593506020850135925060408501359150606085013567ffffffffffffffff811115610f0a57600080fd5b8501601f81018713610f1b57600080fd5b610f2a87823560208401610e6c565b91505092959194509250565b838152606060208201526000610f4f6060830185610da7565b9050826040830152949350505050565b6000604082016040835280855180835260608501915060608160051b86010192506020870160005b82811015610fb857605f19878603018452610fa3858351610da7565b94506020938401939190910190600101610f87565b50505050828103602084015280845180835260208301915060208601925060005b81811015610ff7578351835260209384019390920191600101610fd9565b50909695505050505050565b600082601f83011261101457600080fd5b61102383833560208501610e6c565b9392505050565b6000806000806080858703121561104057600080fd5b843567ffffffffffffffff81111561105757600080fd5b61106387828801611003565b9450506020850135925060408501359150606085013567ffffffffffffffff81111561108e57600080fd5b8501601f8101871361109f57600080fd5b803567ffffffffffffffff8111156110b9576110b9610e25565b8060051b6110c960208201610e3b565b9182526020818401810192908101908a8411156110e557600080fd5b6020850192505b8383101561112c57823567ffffffffffffffff81111561110b57600080fd5b61111a8c602083890101611003565b835250602092830192909101906110ec565b979a9699509497505050505050565b600181811c9082168061114f57607f821691505b60208210810361116f57634e487b7160e01b600052602260045260246000fd5b50919050565b634e487b7160e01b600052603260045260246000fd5b6000600182016111ab57634e487b7160e01b600052601160045260246000fd5b5060010190565b60208082526022908201527f4f6e6c792061646d696e2063616e20706572666f726d2074686973206163746960408201526137b760f11b606082015260800190565b601f82111561123e57806000526020600020601f840160051c8101602085101561121b5750805b601f840160051c820191505b8181101561123b5760008155600101611227565b50505b505050565b815167ffffffffffffffff81111561125d5761125d610e25565b6112718161126b845461113b565b846111f4565b6020601f8211600181146112a5576000831561128d5750848201515b600019600385901b1c1916600184901b17845561123b565b600084815260208120601f198516915b828110156112d557878501518255602094850194600190920191016112b5565b50848210156112f35786840151600019600387901b60f8161c191681555b50505050600190811b01905550565b6060815260006113156060830186610da7565b6020830194909452506040015291905056fea264697066735822122004db57152b3aa2f38a895b56f3f632b05e964467a47858fa0740a65ca710f24764736f6c634300081c0033",
  "linkReferences": {},
  "deployedLinkReferences": {}
}