{
  "_format": "hh-sol-artifact-1",
  "contractName": "Voting",
  "sourceName": "contracts/Voting.sol",
  "abi": [
    {
      "anonymous": false,
      "inputs": [
        {
          "indexed": false,
          "internalType": "uint256",
          "name": "id",
          "type": "uint256"
        },
        {
          "indexed": false,
          "internalType": "string",
          "name": "title",
          "type": "string"
        }
      ],
      "name": "ElectionCreated",
      "type": "event"
    },
    {
      "anonymous": false,
      "inputs": [
        {
          "indexed": false,
          "internalType": "uint256",
          "name": "electionId",
          "type": "uint256"
        },
        {
          "indexed": false,
          "internalType": "address",
          "name": "voter",
          "type": "address"
        },
        {
          "indexed": false,
          "internalType": "uint256",
          "name": "candidateId",
          "type": "uint256"
        }
      ],
      "name": "Voted",
      "type": "event"
    },
    {
      "inputs": [
        {
          "internalType": "string",
          "name": "_title",
          "type": "string"
        },
        {
          "internalType": "string[]",
          "name": "_candidates",
          "type": "string[]"
        }
      ],
      "name": "createElection",
      "outputs": [],
      "stateMutability": "nonpayable",
      "type": "function"
    },
    {
      "inputs": [],
      "name": "electionCount",
      "outputs": [
        {
          "internalType": "uint256",
          "name": "",
          "type": "uint256"
        }
      ],
      "stateMutability": "view",
      "type": "function"
    },
    {
      "inputs": [
        {
          "internalType": "uint256",
          "name": "",
          "type": "uint256"
        }
      ],
      "name": "elections",
      "outputs": [
        {
          "internalType": "uint256",
          "name": "id",
          "type": "uint256"
        },
        {
          "internalType": "string",
          "name": "title",
          "type": "string"
        },
        {
          "internalType": "bool",
          "name": "isActive",
          "type": "bool"
        },
        {
          "internalType": "uint256",
          "name": "totalVotes",
          "type": "uint256"
        }
      ],
      "stateMutability": "view",
      "type": "function"
    },
    {
      "inputs": [
        {
          "internalType": "uint256",
          "name": "_electionId",
          "type": "uint256"
        }
      ],
      "name": "getResults",
      "outputs": [
        {
          "internalType": "string[]",
          "name": "",
          "type": "string[]"
        },
        {
          "internalType": "uint256[]",
          "name": "",
          "type": "uint256[]"
        }
      ],
      "stateMutability": "view",
      "type": "function"
    },
    {
      "inputs": [
        {
          "internalType": "uint256",
          "name": "_electionId",
          "type": "uint256"
        },
        {
          "internalType": "address",
          "name": "_voter",
          "type": "address"
        }
      ],
      "name": "hasVoted",
      "outputs": [
        {
          "internalType": "bool",
          "name": "",
          "type": "bool"
        }
      ],
      "stateMutability": "view",
      "type": "function"
    },
    {
      "inputs": [
        {
          "internalType": "uint256",
          "name": "_electionId",
          "type": "uint256"
        },
        {
          "internalType": "uint256",
          "name": "_candidateId",
          "type": "uint256"
        }
      ],
      "name": "vote",
      "outputs": [],
      "stateMutability": "nonpayable",
      "type": "function"
    }
  ],
  "bytecode": "0x608060405234801561001057600080fd5b50611487806100206000396000f3fe608060405234801561001057600080fd5b50600436106100625760003560e01c8063349813b21461006757806343859632146100835780635e6fef01146100b357806381a60c0d146100e6578063997d283014610117578063b384abef14610135575b600080fd5b610081600480360381019061007c9190610a2e565b610151565b005b61009d60048036038101906100989190610b3a565b610213565b6040516100aa9190610b95565b60405180910390f35b6100cd60048036038101906100c89190610bb0565b61027e565b6040516100dd9493929190610c6b565b60405180910390f35b61010060048036038101906100fb9190610bb0565b610343565b60405161010e929190610e81565b60405180910390f35b61011f6104ef565b60405161012c9190610eb8565b60405180910390f35b61014f600480360381019061014a9190610ed3565b6104f5565b005b60008081548092919061016390610f42565b919050555060006001600080548152602001908152602001600020905060005481600001819055508281600101908161019c9190611196565b5060018160020160006101000a81548160ff021916908315150217905550818160030190805190602001906101d2929190610714565b507f52be7c4e77b4de76b7607d621492061fe13b58597e72dfb5e51ab8f6187ed14160005484604051610206929190611268565b60405180910390a1505050565b60006001600084815260200190815260200160002060050160008373ffffffffffffffffffffffffffffffffffffffff1673ffffffffffffffffffffffffffffffffffffffff16815260200190815260200160002060009054906101000a900460ff16905092915050565b60016020528060005260406000206000915090508060000154908060010180546102a790610fb9565b80601f01602080910402602001604051908101604052809291908181526020018280546102d390610fb9565b80156103205780601f106102f557610100808354040283529160200191610320565b820191906000526020600020905b81548152906001019060200180831161030357829003601f168201915b5050505050908060020160009054906101000a900460ff16908060060154905084565b60608060006001600085815260200190815260200160002090506000816003018054905067ffffffffffffffff8111156103805761037f61081d565b5b6040519080825280602002602001820160405280156103ae5781602001602082028036833780820191505090505b50905060005b826003018054905081101561040b57826004016000828152602001908152602001600020548282815181106103ec576103eb611298565b5b602002602001018181525050808061040390610f42565b9150506103b4565b50816003018181805480602002602001604051908101604052809291908181526020016000905b828210156104de57838290600052602060002001805461045190610fb9565b80601f016020809104026020016040519081016040528092919081815260200182805461047d90610fb9565b80156104ca5780601f1061049f576101008083540402835291602001916104ca565b820191906000526020600020905b8154815290600101906020018083116104ad57829003601f168201915b505050505081526020019060010190610432565b505050509150935093505050915091565b60005481565b60006001600084815260200190815260200160002090508060020160009054906101000a900460ff1661055d576040517f08c379a000000000000000000000000000000000000000000000000000000000815260040161055490611313565b60405180910390fd5b8060050160003373ffffffffffffffffffffffffffffffffffffffff1673ffffffffffffffffffffffffffffffffffffffff16815260200190815260200160002060009054906101000a900460ff16156105ec576040517f08c379a00000000000000000000000000000000000000000000000000000000081526004016105e39061137f565b60405180910390fd5b80600301805490508210610635576040517f08c379a000000000000000000000000000000000000000000000000000000000815260040161062c906113eb565b60405180910390fd5b806004016000838152602001908152602001600020600081548092919061065b90610f42565b919050555060018160050160003373ffffffffffffffffffffffffffffffffffffffff1673ffffffffffffffffffffffffffffffffffffffff16815260200190815260200160002060006101000a81548160ff0219169083151502179055508060060160008154809291906106cf90610f42565b91905055507f1abe610cf2bf87e57dcc1181fcf5ac0934e843d8344ab9eed6e86c799f62585e8333846040516107079392919061141a565b60405180910390a1505050565b82805482825590600052602060002090810192821561075c579160200282015b8281111561075b57825182908161074b9190611196565b5091602001919060010190610734565b5b509050610769919061076d565b5090565b5b8082111561078d57600081816107849190610791565b5060010161076e565b5090565b50805461079d90610fb9565b6000825580601f106107af57506107ce565b601f0160209004906000526020600020908101906107cd91906107d1565b5b50565b5b808211156107ea5760008160009055506001016107d2565b5090565b6000604051905090565b600080fd5b600080fd5b600080fd5b600080fd5b6000601f19601f8301169050919050565b7f4e487b7100000000000000000000000000000000000000000000000000000000600052604160045260246000fd5b6108558261080c565b810181811067ffffffffffffffff821117156108745761087361081d565b5b80604052505050565b60006108876107ee565b9050610893828261084c565b919050565b600067ffffffffffffffff8211156108b3576108b261081d565b5b6108bc8261080c565b9050602081019050919050565b82818337600083830152505050565b60006108eb6108e684610898565b61087d565b90508281526020810184848401111561090757610906610807565b5b6109128482856108c9565b509392505050565b600082601f83011261092f5761092e610802565b5b813561093f8482602086016108d8565b91505092915050565b600067ffffffffffffffff8211156109635761096261081d565b5b602082029050602081019050919050565b600080fd5b600061098c61098784610948565b61087d565b905080838252602082019050602084028301858111156109af576109ae610974565b5b835b818110156109f657803567ffffffffffffffff8111156109d4576109d3610802565b5b8086016109e1898261091a565b855260208501945050506020810190506109b1565b5050509392505050565b600082601f830112610a1557610a14610802565b5b8135610a25848260208601610979565b91505092915050565b60008060408385031215610a4557610a446107f8565b5b600083013567ffffffffffffffff811115610a6357610a626107fd565b5b610a6f8582860161091a565b925050602083013567ffffffffffffffff811115610a9057610a8f6107fd565b5b610a9c85828601610a00565b9150509250929050565b6000819050919050565b610ab981610aa6565b8114610ac457600080fd5b50565b600081359050610ad681610ab0565b92915050565b600073ffffffffffffffffffffffffffffffffffffffff82169050919050565b6000610b0782610adc565b9050919050565b610b1781610afc565b8114610b2257600080fd5b50565b600081359050610b3481610b0e565b92915050565b60008060408385031215610b5157610b506107f8565b5b6000610b5f85828601610ac7565b9250506020610b7085828601610b25565b9150509250929050565b60008115159050919050565b610b8f81610b7a565b82525050565b6000602082019050610baa6000830184610b86565b92915050565b600060208284031215610bc657610bc56107f8565b5b6000610bd484828501610ac7565b91505092915050565b610be681610aa6565b82525050565b600081519050919050565b600082825260208201905092915050565b60005b83811015610c26578082015181840152602081019050610c0b565b60008484015250505050565b6000610c3d82610bec565b610c478185610bf7565b9350610c57818560208601610c08565b610c608161080c565b840191505092915050565b6000608082019050610c806000830187610bdd565b8181036020830152610c928186610c32565b9050610ca16040830185610b86565b610cae6060830184610bdd565b95945050505050565b600081519050919050565b600082825260208201905092915050565b6000819050602082019050919050565b600082825260208201905092915050565b6000610cff82610bec565b610d098185610ce3565b9350610d19818560208601610c08565b610d228161080c565b840191505092915050565b6000610d398383610cf4565b905092915050565b6000602082019050919050565b6000610d5982610cb7565b610d638185610cc2565b935083602082028501610d7585610cd3565b8060005b85811015610db15784840389528151610d928582610d2d565b9450610d9d83610d41565b925060208a01995050600181019050610d79565b50829750879550505050505092915050565b600081519050919050565b600082825260208201905092915050565b6000819050602082019050919050565b610df881610aa6565b82525050565b6000610e0a8383610def565b60208301905092915050565b6000602082019050919050565b6000610e2e82610dc3565b610e388185610dce565b9350610e4383610ddf565b8060005b83811015610e74578151610e5b8882610dfe565b9750610e6683610e16565b925050600181019050610e47565b5085935050505092915050565b60006040820190508181036000830152610e9b8185610d4e565b90508181036020830152610eaf8184610e23565b90509392505050565b6000602082019050610ecd6000830184610bdd565b92915050565b60008060408385031215610eea57610ee96107f8565b5b6000610ef885828601610ac7565b9250506020610f0985828601610ac7565b9150509250929050565b7f4e487b7100000000000000000000000000000000000000000000000000000000600052601160045260246000fd5b6000610f4d82610aa6565b91507fffffffffffffffffffffffffffffffffffffffffffffffffffffffffffffffff8203610f7f57610f7e610f13565b5b600182019050919050565b7f4e487b7100000000000000000000000000000000000000000000000000000000600052602260045260246000fd5b60006002820490506001821680610fd157607f821691505b602082108103610fe457610fe3610f8a565b5b50919050565b60008190508160005260206000209050919050565b60006020601f8301049050919050565b600082821b905092915050565b60006008830261104c7fffffffffffffffffffffffffffffffffffffffffffffffffffffffffffffffff8261100f565b611056868361100f565b95508019841693508086168417925050509392505050565b6000819050919050565b600061109361108e61108984610aa6565b61106e565b610aa6565b9050919050565b6000819050919050565b6110ad83611078565b6110c16110b98261109a565b84845461101c565b825550505050565b600090565b6110d66110c9565b6110e18184846110a4565b505050565b5b81811015611105576110fa6000826110ce565b6001810190506110e7565b5050565b601f82111561114a5761111b81610fea565b61112484610fff565b81016020851015611133578190505b61114761113f85610fff565b8301826110e6565b50505b505050565b600082821c905092915050565b600061116d6000198460080261114f565b1980831691505092915050565b6000611186838361115c565b9150826002028217905092915050565b61119f82610bec565b67ffffffffffffffff8111156111b8576111b761081d565b5b6111c28254610fb9565b6111cd828285611109565b600060209050601f83116001811461120057600084156111ee578287015190505b6111f8858261117a565b865550611260565b601f19841661120e86610fea565b60005b8281101561123657848901518255600182019150602085019450602081019050611211565b86831015611253578489015161124f601f89168261115c565b8355505b6001600288020188555050505b505050505050565b600060408201905061127d6000830185610bdd565b818103602083015261128f8184610c32565b90509392505050565b7f4e487b7100000000000000000000000000000000000000000000000000000000600052603260045260246000fd5b7f456c656374696f6e206973206e6f742061637469766500000000000000000000600082015250565b60006112fd601683610bf7565b9150611308826112c7565b602082019050919050565b6000602082019050818103600083015261132c816112f0565b9050919050565b7f596f75206861766520616c726561647920766f74656400000000000000000000600082015250565b6000611369601683610bf7565b915061137482611333565b602082019050919050565b600060208201905081810360008301526113988161135c565b9050919050565b7f496e76616c69642063616e646964617465000000000000000000000000000000600082015250565b60006113d5601183610bf7565b91506113e08261139f565b602082019050919050565b60006020820190508181036000830152611404816113c8565b9050919050565b61141481610afc565b82525050565b600060608201905061142f6000830186610bdd565b61143c602083018561140b565b6114496040830184610bdd565b94935050505056fea2646970667358221220d40b2e966fe70ae37b7f3df7d7d1d2b6471c9f8bbcf22f5f1cbf8bc1ddc558e564736f6c63430008130033",
  "linkReferences": {},
  "deployedLinkReferences": {}
}