{
  "_format": "hh-sol-artifact-1",
  "contractName": "VotingSSI",
  "sourceName": "contracts/VotingSSI.sol",
  "abi": [
    {
      "inputs": [
        {
          "internalType": "address",
          "name": "_issuer",
          "type": "address"
        },
        {
          "internalType": "string",
          "name": "_name",
          "type": "string"
        },
        {
          "internalType": "string",
          "name": "_version",
          "type": "string"
        }
      ],
      "stateMutability": "nonpayable",
      "type": "constructor"
    },
    {
      "inputs": [],
      "name": "DoubleVoting",
      "type": "error"
    },
    {
      "inputs": [],
      "name": "ECDSAFailed",
      "type": "error"
    },
    {
      "inputs": [],
      "name": "ElectionAlreadyEnded",
      "type": "error"
    },
    {
      "inputs": [],
      "name": "ElectionEnded",
      "type": "error"
    },
    {
      "inputs": [],
      "name": "ElectionNotActive",
      "type": "error"
    },
    {
      "inputs": [],
      "name": "ElectionNotStarted",
      "type": "error"
    },
    {
      "inputs": [],
      "name": "InvalidCandidate",
      "type": "error"
    },
    {
      "inputs": [],
      "name": "InvalidIssuer",
      "type": "error"
    },
    {
      "inputs": [],
      "name": "InvalidSignatureLength",
      "type": "error"
    },
    {
      "inputs": [],
      "name": "InvalidSignatureV",
      "type": "error"
    },
    {
      "inputs": [],
      "name": "InvalidSignatures",
      "type": "error"
    },
    {
      "inputs": [],
      "name": "InvalidTimeRange",
      "type": "error"
    },
    {
      "inputs": [],
      "name": "NoCandidates",
      "type": "error"
    },
    {
      "inputs": [],
      "name": "ProofExpired",
      "type": "error"
    },
    {
      "inputs": [],
      "name": "Unauthorized",
      "type": "error"
    },
    {
      "anonymous": false,
      "inputs": [
        {
          "indexed": true,
          "internalType": "uint256",
          "name": "electionID",
          "type": "uint256"
        },
        {
          "indexed": false,
          "internalType": "string",
          "name": "title",
          "type": "string"
        },
        {
          "indexed": false,
          "internalType": "uint256",
          "name": "startTime",
          "type": "uint256"
        },
        {
          "indexed": false,
          "internalType": "uint256",
          "name": "endTime",
          "type": "uint256"
        }
      ],
      "name": "ElectionCreated",
      "type": "event"
    },
    {
      "anonymous": false,
      "inputs": [
        {
          "indexed": true,
          "internalType": "address",
          "name": "oldIssuer",
          "type": "address"
        },
        {
          "indexed": true,
          "internalType": "address",
          "name": "newIssuer",
          "type": "address"
        }
      ],
      "name": "IssuerUpdated",
      "type": "event"
    },
    {
      "anonymous": false,
      "inputs": [
        {
          "indexed": true,
          "internalType": "uint256",
          "name": "electionID",
          "type": "uint256"
        },
        {
          "indexed": false,
          "internalType": "uint256",
          "name": "candidateID",
          "type": "uint256"
        },
        {
          "indexed": true,
          "internalType": "bytes32",
          "name": "nullifier",
          "type": "bytes32"
        },
        {
          "indexed": false,
          "internalType": "uint256",
          "name": "timestamp",
          "type": "uint256"
        }
      ],
      "name": "VoteCast",
      "type": "event"
    },
    {
      "inputs": [],
      "name": "CREDENTIAL_TYPEHASH",
      "outputs": [
        {
          "internalType": "bytes32",
          "name": "",
          "type": "bytes32"
        }
      ],
      "stateMutability": "view",
      "type": "function"
    },
    {
      "inputs": [],
      "name": "DOMAIN_SEPARATOR",
      "outputs": [
        {
          "internalType": "bytes32",
          "name": "",
          "type": "bytes32"
        }
      ],
      "stateMutability": "view",
      "type": "function"
    },
    {
      "inputs": [],
      "name": "VOTE_TYPEHASH",
      "outputs": [
        {
          "internalType": "bytes32",
          "name": "",
          "type": "bytes32"
        }
      ],
      "stateMutability": "view",
      "type": "function"
    },
    {
      "inputs": [
        {
          "internalType": "bytes32",
          "name": "_emailHash",
          "type": "bytes32"
        },
        {
          "internalType": "uint256",
          "name": "_electionID",
          "type": "uint256"
        }
      ],
      "name": "calculateNullifier",
      "outputs": [
        {
          "internalType": "bytes32",
          "name": "",
          "type": "bytes32"
        }
      ],
      "stateMutability": "pure",
      "type": "function"
    },
    {
      "inputs": [
        {
          "internalType": "uint256",
          "name": "",
          "type": "uint256"
        },
        {
          "internalType": "uint256",
          "name": "",
          "type": "uint256"
        }
      ],
      "name": "candidates",
      "outputs": [
        {
          "internalType": "uint256",
          "name": "id",
          "type": "uint256"
        },
        {
          "internalType": "string",
          "name": "name",
          "type": "string"
        },
        {
          "internalType": "uint256",
          "name": "voteCount",
          "type": "uint256"
        }
      ],
      "stateMutability": "view",
      "type": "function"
    },
    {
      "inputs": [
        {
          "internalType": "string",
          "name": "_title",
          "type": "string"
        },
        {
          "internalType": "uint256",
          "name": "_startTime",
          "type": "uint256"
        },
        {
          "internalType": "uint256",
          "name": "_endTime",
          "type": "uint256"
        },
        {
          "internalType": "string[]",
          "name": "_candidateNames",
          "type": "string[]"
        }
      ],
      "name": "createElection",
      "outputs": [],
      "stateMutability": "nonpayable",
      "type": "function"
    },
    {
      "inputs": [],
      "name": "currentElectionId",
      "outputs": [
        {
          "internalType": "uint256",
          "name": "",
          "type": "uint256"
        }
      ],
      "stateMutability": "view",
      "type": "function"
    },
    {
      "inputs": [
        {
          "internalType": "uint256",
          "name": "",
          "type": "uint256"
        }
      ],
      "name": "elections",
      "outputs": [
        {
          "internalType": "uint256",
          "name": "id",
          "type": "uint256"
        },
        {
          "internalType": "string",
          "name": "title",
          "type": "string"
        },
        {
          "internalType": "uint256",
          "name": "startTime",
          "type": "uint256"
        },
        {
          "internalType": "uint256",
          "name": "endTime",
          "type": "uint256"
        },
        {
          "internalType": "bool",
          "name": "isActive",
          "type": "bool"
        }
      ],
      "stateMutability": "view",
      "type": "function"
    },
    {
      "inputs": [
        {
          "internalType": "uint256",
          "name": "_electionID",
          "type": "uint256"
        }
      ],
      "name": "endElection",
      "outputs": [],
      "stateMutability": "nonpayable",
      "type": "function"
    },
    {
      "inputs": [
        {
          "internalType": "uint256",
          "name": "_electionID",
          "type": "uint256"
        }
      ],
      "name": "getCandidateCount",
      "outputs": [
        {
          "internalType": "uint256",
          "name": "",
          "type": "uint256"
        }
      ],
      "stateMutability": "view",
      "type": "function"
    },
    {
      "inputs": [],
      "name": "getDomainSeparator",
      "outputs": [
        {
          "internalType": "bytes32",
          "name": "",
          "type": "bytes32"
        }
      ],
      "stateMutability": "view",
      "type": "function"
    },
    {
      "inputs": [
        {
          "internalType": "uint256",
          "name": "_electionID",
          "type": "uint256"
        }
      ],
      "name": "getResults",
      "outputs": [
        {
          "internalType": "string[]",
          "name": "names",
          "type": "string[]"
        },
        {
          "internalType": "uint256[]",
          "name": "votes",
          "type": "uint256[]"
        }
      ],
      "stateMutability": "view",
      "type": "function"
    },
    {
      "inputs": [
        {
          "internalType": "bytes32",
          "name": "_nullifier",
          "type": "bytes32"
        }
      ],
      "name": "isNullifierUsed",
      "outputs": [
        {
          "internalType": "bool",
          "name": "",
          "type": "bool"
        }
      ],
      "stateMutability": "view",
      "type": "function"
    },
    {
      "inputs": [],
      "name": "issuer",
      "outputs": [
        {
          "internalType": "address",
          "name": "",
          "type": "address"
        }
      ],
      "stateMutability": "view",
      "type": "function"
    },
    {
      "inputs": [
        {
          "internalType": "address",
          "name": "_newIssuer",
          "type": "address"
        }
      ],
      "name": "updateIssuer",
      "outputs": [],
      "stateMutability": "nonpayable",
      "type": "function"
    },
    {
      "inputs": [
        {
          "internalType": "bytes32",
          "name": "",
          "type": "bytes32"
        }
      ],
      "name": "usedNullifiers",
      "outputs": [
        {
          "internalType": "bool",
          "name": "",
          "type": "bool"
        }
      ],
      "stateMutability": "view",
      "type": "function"
    },
    {
      "inputs": [
        {
          "components": [
            {
              "internalType": "bytes32",
              "name": "emailHash",
              "type": "bytes32"
            },
            {
              "internalType": "address",
              "name": "burner",
              "type": "address"
            },
            {
              "internalType": "uint256",
              "name": "electionID",
              "type": "uint256"
            },
            {
              "internalType": "uint256",
              "name": "candidateID",
              "type": "uint256"
            },
            {
              "internalType": "uint256",
              "name": "timestamp",
              "type": "uint256"
            },
            {
              "internalType": "bytes",
              "name": "issuerSignature",
              "type": "bytes"
            },
            {
              "internalType": "bytes",
              "name": "burnerSignature",
              "type": "bytes"
            }
          ],
          "internalType": "struct VotingSSI.VoteProof",
          "name": "proof",
          "type": "tuple"
        }
      ],
      "name": "vote",
      "outputs": [],
      "stateMutability": "nonpayable",
      "type": "function"
    }
  ],
  "bytecode": "0x608060405234801561001057600080fd5b5060405161183238038061183283398101604081905261002f916101a5565b6001600160a01b03831661005657604051635edff10b60e11b815260040160405180910390fd5b600180546001600160a01b0319166001600160a01b0385161790558151602080840191909120825183830120604080517f8b73c3c69bb8fe3d512ecc4cf759cc79239f7b179b0ffacaa9a75d522b39400f9481019490945283019190915260608201524660808201523060a082015260c0016040516020818303038152906040528051906020012060008190555050505061022d565b634e487b7160e01b600052604160045260246000fd5b600082601f83011261011357600080fd5b81516001600160401b0381111561012c5761012c6100ec565b604051601f8201601f19908116603f011681016001600160401b038111828210171561015a5761015a6100ec565b60405281815283820160200185101561017257600080fd5b60005b8281101561019157602081860181015183830182015201610175565b506000918101602001919091529392505050565b6000806000606084860312156101ba57600080fd5b83516001600160a01b03811681146101d157600080fd5b60208501519093506001600160401b038111156101ed57600080fd5b6101f986828701610102565b604086015190935090506001600160401b0381111561021757600080fd5b61022386828701610102565b9150509250925092565b6115f68061023c6000396000f3fe608060405234801561001057600080fd5b506004361061010b5760003560e01c8063656e80a1116100a25780638652297311610071578063865229731461029657806398ecf2a0146102bd5780639c98bcbb146102c6578063bc279047146102d9578063ed24911d146102ec57600080fd5b8063656e80a11461022d57806378312435146102405780637de142421461025357806381a60c0d1461027557600080fd5b806327d35000116100de57806327d35000146101c45780633644e515146101eb5780633b58fd3a146101f45780635e6fef011461020957600080fd5b80631d14384814610110578063206137aa1461014057806322dc7b4c1461017357806326f6a2aa14610196575b600080fd5b600154610123906001600160a01b031681565b6040516001600160a01b0390911681526020015b60405180910390f35b61016361014e366004610fdb565b60056020526000908152604090205460ff1681565b6040519015158152602001610137565b610163610181366004610fdb565b60009081526005602052604090205460ff1690565b6101b66101a4366004610fdb565b60009081526004602052604090205490565b604051908152602001610137565b6101b67f76a9d642c806c907ea3dea2a312a262b4a16dd30d78440d444018584f3acbf7281565b6101b660005481565b610207610202366004610ff4565b6102f4565b005b61021c610217366004610fdb565b6105db565b60405161013795949392919061107c565b6101b661023b3660046110b4565b610697565b61020761024e3660046110d6565b6106c6565b6102666102613660046110b4565b610769565b604051610137939291906110ff565b610288610283366004610fdb565b610838565b604051610137929190611128565b6101b67fdd020eadfab6f62908d5aa3adc9590f09c66d4959b3f970feb0ba67c9280a5f681565b6101b660025481565b6102076102d4366004610fdb565b610a24565b6102076102e7366004611283565b610a9b565b6000546101b6565b80604001356000600360008381526020019081526020016000206040518060a00160405290816000820154815260200160018201805461033390611394565b80601f016020809104026020016040519081016040528092919081815260200182805461035f90611394565b80156103ac5780601f10610381576101008083540402835291602001916103ac565b820191906000526020600020905b81548152906001019060200180831161038f57829003601f168201915b5050509183525050600282015460208201526003820154604082015260049091015460ff16151560609091015260808101519091506103fe57604051638744898560e01b815260040160405180910390fd5b8060400151421015610423576040516372a84ce560e11b815260040160405180910390fd5b80606001514211156104485760405163066ec72360e41b815260040160405180910390fd5b604080518435602080830191909152858301358284015282518083038401815260609092018352815191810191909120600081815260059092529190205460ff16156104a75760405163bb70441b60e01b815260040160405180910390fd5b6040808501356000908152600460205220546060850135106104dc5760405163e66ea08f60e01b815260040160405180910390fd5b6104ec6080850135610e106113e4565b42111561050c5760405163b67a771360e01b815260040160405180910390fd5b61051584610c83565b6105325760405163274cf40160e01b815260040160405180910390fd5b6000818152600560209081526040808320805460ff191660011790558681013583526004909152902080546060860135908110610571576105716113f7565b6000918252602091829020600260039092020101805460010190556040805160608701358152608087013592810192909252829181870135917fe79f2326f5235cecec005b291a88eac9e9f418c219be84fe8b9e8ba3547dcc6e910160405180910390a350505050565b600360205260009081526040902080546001820180549192916105fd90611394565b80601f016020809104026020016040519081016040528092919081815260200182805461062990611394565b80156106765780601f1061064b57610100808354040283529160200191610676565b820191906000526020600020905b81548152906001019060200180831161065957829003601f168201915b50505050600283015460038401546004909401549293909290915060ff1685565b604080516020808201859052818301849052825180830384018152606090920190925280519101205b92915050565b6001546001600160a01b031633146106f0576040516282b42960e81b815260040160405180910390fd5b6001600160a01b03811661071757604051635edff10b60e11b815260040160405180910390fd5b600180546001600160a01b038381166001600160a01b0319831681179093556040519116919082907f6d32c1367cc28eab61cca04e424f151519f02908af46776ba8373eaea407baa990600090a35050565b6004602052816000526040600020818154811061078557600080fd5b9060005260206000209060030201600091509150508060000154908060010180546107af90611394565b80601f01602080910402602001604051908101604052809291908181526020018280546107db90611394565b80156108285780601f106107fd57610100808354040283529160200191610828565b820191906000526020600020905b81548152906001019060200180831161080b57829003601f168201915b5050505050908060020154905083565b60008181526004602052604090205460609081908067ffffffffffffffff811115610865576108656111cc565b60405190808252806020026020018201604052801561089857816020015b60608152602001906001900390816108835790505b5092508067ffffffffffffffff8111156108b4576108b46111cc565b6040519080825280602002602001820160405280156108dd578160200160208202803683370190505b50915060005b81811015610a1d57600085815260046020526040902080548290811061090b5761090b6113f7565b9060005260206000209060030201600101805461092790611394565b80601f016020809104026020016040519081016040528092919081815260200182805461095390611394565b80156109a05780601f10610975576101008083540402835291602001916109a0565b820191906000526020600020905b81548152906001019060200180831161098357829003601f168201915b50505050508482815181106109b7576109b76113f7565b60200260200101819052506004600086815260200190815260200160002081815481106109e6576109e66113f7565b906000526020600020906003020160020154838281518110610a0a57610a0a6113f7565b60209081029190910101526001016108e3565b5050915091565b6001546001600160a01b03163314610a4e576040516282b42960e81b815260040160405180910390fd5b60008181526003602052604090206004015460ff16610a805760405163399d988360e21b815260040160405180910390fd5b6000908152600360205260409020600401805460ff19169055565b6001546001600160a01b03163314610ac5576040516282b42960e81b815260040160405180910390fd5b818310610ae55760405163536a71af60e01b815260040160405180910390fd5b8051600003610b0757604051633941064160e21b815260040160405180910390fd5b60028054906000610b178361140d565b90915550506040805160a081018252600254808252602080830188815283850188905260608401879052600160808501819052600093845260039092529390912082518155925191929190820190610b6f9082611475565b5060408201516002820155606082015160038201556080909101516004909101805460ff191691151591909117905560005b8151811015610c3e576004600060025481526020019081526020016000206040518060600160405280838152602001848481518110610be257610be26113f7565b602090810291909101810151825260009181018290528354600181810186559483529181902083516003909302019182558201519192909190820190610c289082611475565b5060409190910151600290910155600101610ba1565b506002547fe7a0aae5d733e07e246dea86213a1ac1b0aa8554bde889bb75c12752f44e53d9858585604051610c7593929190611534565b60405180910390a250505050565b6000807f76a9d642c806c907ea3dea2a312a262b4a16dd30d78440d444018584f3acbf728335610cb960408601602087016110d6565b604080516020810194909452838101929092526001600160a01b03166060830152840135608082015260a0016040516020818303038152906040528051906020012090506000805482604051602001610d2992919061190160f01b81526002810192909252602282015260420190565b60408051601f19818403018152919052805160209091012090506000610d9082610d5660a0880188611559565b8080601f016020809104026020016040519081016040528093929190818152602001838380828437600092019190915250610ec392505050565b6001549091506001600160a01b03808316911614610dc15760405163274cf40160e01b815260040160405180910390fd5b604080517fdd020eadfab6f62908d5aa3adc9590f09c66d4959b3f970feb0ba67c9280a5f6602080830191909152606088810135838501528884013590830152608080890135818401528351808403909101815260a0830190935282519201919091206000805461190160f01b60c085015260c284015260e2830182905290916101020160408051601f19818403018152919052805160209091012090506000610e7282610d5660c08b018b611559565b9050610e846040890160208a016110d6565b6001600160a01b0316816001600160a01b031614610eb55760405163274cf40160e01b815260040160405180910390fd5b506001979650505050505050565b60008151604114610ee757604051634be6321b60e01b815260040160405180910390fd5b60208201516040830151606084015160001a601b811015610f1057610f0d601b826115a7565b90505b8060ff16601b14158015610f2857508060ff16601c14155b15610f4957604051600162aae17760e01b0319815260040160405180910390fd5b6040805160008082526020820180845289905260ff841692820192909252606081018590526080810184905260019060a0016020604051602081039080840390855afa158015610f9d573d6000803e3d6000fd5b5050604051601f1901519150506001600160a01b038116610fd1576040516336409d8560e01b815260040160405180910390fd5b9695505050505050565b600060208284031215610fed57600080fd5b5035919050565b60006020828403121561100657600080fd5b813567ffffffffffffffff81111561101d57600080fd5b820160e0818503121561102f57600080fd5b9392505050565b6000815180845260005b8181101561105c57602081850181015186830182015201611040565b506000602082860101526020601f19601f83011685010191505092915050565b85815260a06020820152600061109560a0830187611036565b6040830195909552506060810192909252151560809091015292915050565b600080604083850312156110c757600080fd5b50508035926020909101359150565b6000602082840312156110e857600080fd5b81356001600160a01b038116811461102f57600080fd5b8381526060602082015260006111186060830185611036565b9050826040830152949350505050565b6000604082016040835280855180835260608501915060608160051b86010192506020870160005b8281101561118157605f1987860301845261116c858351611036565b94506020938401939190910190600101611150565b50505050828103602084015280845180835260208301915060208601925060005b818110156111c05783518352602093840193909201916001016111a2565b50909695505050505050565b634e487b7160e01b600052604160045260246000fd5b604051601f8201601f1916810167ffffffffffffffff8111828210171561120b5761120b6111cc565b604052919050565b600082601f83011261122457600080fd5b813567ffffffffffffffff81111561123e5761123e6111cc565b611251601f8201601f19166020016111e2565b81815284602083860101111561126657600080fd5b816020850160208301376000918101602001919091529392505050565b6000806000806080858703121561129957600080fd5b843567ffffffffffffffff8111156112b057600080fd5b6112bc87828801611213565b9450506020850135925060408501359150606085013567ffffffffffffffff8111156112e757600080fd5b8501601f810187136112f857600080fd5b803567ffffffffffffffff811115611312576113126111cc565b8060051b611322602082016111e2565b9182526020818401810192908101908a84111561133e57600080fd5b6020850192505b8383101561138557823567ffffffffffffffff81111561136457600080fd5b6113738c602083890101611213565b83525060209283019290910190611345565b979a9699509497505050505050565b600181811c908216806113a857607f821691505b6020821081036113c857634e487b7160e01b600052602260045260246000fd5b50919050565b634e487b7160e01b600052601160045260246000fd5b808201808211156106c0576106c06113ce565b634e487b7160e01b600052603260045260246000fd5b60006001820161141f5761141f6113ce565b5060010190565b601f82111561147057806000526020600020601f840160051c8101602085101561144d5750805b601f840160051c820191505b8181101561146d5760008155600101611459565b50505b505050565b815167ffffffffffffffff81111561148f5761148f6111cc565b6114a38161149d8454611394565b84611426565b6020601f8211600181146114d757600083156114bf5750848201515b600019600385901b1c1916600184901b17845561146d565b600084815260208120601f198516915b8281101561150757878501518255602094850194600190920191016114e7565b50848210156115255786840151600019600387901b60f8161c191681555b50505050600190811b01905550565b6060815260006115476060830186611036565b60208301949094525060400152919050565b6000808335601e1984360301811261157057600080fd5b83018035915067ffffffffffffffff82111561158b57600080fd5b6020019150368190038213156115a057600080fd5b9250929050565b60ff81811683821601908111156106c0576106c06113ce56fea2646970667358221220c3294c6c5c34850ebe71c8fe53f5f92cc8ba8b4585db2c98f33e9dc0f084d7c864736f6c634300081c0033",
  "linkReferences": {},
  "deployedLinkReferences": {}
}